:020000040800F2
:10000000600F00209D010008290E00080B0C00085D
:10001000250E0008CD0A0008311900080000000074
:10002000000000000000000000000000A51500080E
:100030000D0B000800000000ED0E00081517000869
:10004000B7010008B7010008B7010008B7010008B0
:10005000B7010008B7010008B7010008B7010008A0
:10006000B7010008B7010008B7010008B701000890
:10007000B7010008B7010008B7010008B701000880
:10008000B7010008B7010008B7010008B701000870
:10009000B7010008B7010008B7010008B701000860
:1000A000B7010008B7010008B7010008B701000850
:1000B000B7010008B7010008B7010008B701000840
:1000C000B7010008B7010008B7010008B701000830
:1000D000B7010008B7010008B7010008B701000820
:1000E0002B0B0008B7010008B7010008B701000892
:1000F000B7010008B7010008B7010008B701000800
:10010000B7010008A9140008B7010008B7010008EA
:10011000B7010008B7010008B7010008B7010008DF
:10012000B7010008B7010008B7010008D10A0008AC
:10013000B7010008B7010008B7010008B7010008BF
:10014000B7010008B7010008B7010008B7010008AF
:10015000B7010008B7010008B7010008B70100089F
:10016000B7010008B7010008B7010008B70100088F
:10017000B7010008B7010008B7010008B70100087F
:10018000B7010008B7010008DFF80CD000F0D8F97B
:100190000048004709220008600F002006488047F9
:1001A00006480047FEE7FEE7FEE7FEE7FEE7FEE75C
:1001B000FEE7FEE7FEE7FEE7711700088901000889
:1001C00040EA01039B0703D009E008C9121F08C0D9
:1001D000042AFAD203E011F8013B00F8013B521E59
:1001E000F9D27047D2B201E000F8012B491EFBD2D0
:1001F00070470022F6E710B513460A460446194632
:10020000FFF7F0FF204610BD30B505462A460B46E5
:1002100012F8010B13F8014B08B1A042F8D01CB141
:10022000002802D06D1CF1E7284630BD0FB400B5A0
:100230008DB010A909900B9000914FF0FF300A90FB
:1002400000200C9005480690054807906A4609A8CA
:100250000F9900F047F90DB05DF814FB0105000897
:100260001F0500082DE9FF5F1D464FF0FF3BD5E954
:10027000014691465F464FF00008A9697F1C01982E
:100280008847296A824688470028F6D1BAF1FF3F9D
:100290000CD024F4C064002E19DD600614D5BAF128
:1002A0002B0F09D0BAF12D0F0ED103E0584604B040
:1002B000BDE8F09F44F48064A9697F1C01988847D9
:1002C000761E8246002E02DDBAF1300F03D0B9F15E
:1002D000000F26D032E0A969761E44F400747F1C1A
:1002E000019888478246002E05DDBAF1780F06D0C6
:1002F000BAF1580F03D0B9F1000F10D01EE0B9F1D8
:10030000000F02D0B9F1100F18D1A969761E24F49C
:1003100000747F1C019888478246102002E0082064
:1003200000E00A20814609E008FB0908A969761E59
:1003300044F400747F1C019888478246002E05DD36
:100340004946504600F0BAF80028EDDAE96901980C
:100350008847A00502D46FF00100A8E7E00725D187
:10036000600613D5600502D5C8F1000000E04046E4
:1003700029680A1D2A600968220501D5087015E060
:10038000220701D5088011E008600FE02868011DF0
:1003900029600068210502D580F8008006E0210769
:1003A00002D5A0F8008001E0C0F8008038467EE762
:1003B0002DE9FF5FD2E901A74FF000089169994646
:1003C0001446DDF838B0464601988847054659EA94
:1003D0000B0005D009E0A169761C01988847054605
:1003E000216A284688470028F5D1681C03D05FEAB7
:1003F000CA7005D015E04FF0FF3004B0BDE8F09FA3
:100400002068011D2160D0F800800AE05FEACA7010
:1004100001D108F8015BA169761C7F1E019888470D
:100420000546002F1ADD681C18D0B9F1000F0DD059
:10043000E81705EBD060421120F01F0059F8221098
:100440002A1A012090400142E0D107E0BBF1000FE1
:10045000DCD1216A284688470028D7D0E169019875
:100460008847BBF1000F07D1002E05DD5FEACA7097
:1004700002D1002188F80010A068B84203DDBBF16A
:10048000000F03D017B16FF00100B6E73046B4E7B4
:1004900030B50B46014600202022012409E021FA54
:1004A00002F59D4205D303FA02F5491B04FA02F551
:1004B0002844151EA2F10102F1DC30BD3A2800D219
:1004C000303820F02002412A01D3A2F137008842BF
:1004D00001D34FF0FF307047026811441378016078
:1004E00018467047D16004495161044911620021E6
:1004F0001161114600F03CB8D904000865050008F8
:10050000426842B1016811F8013B23B1521EC0E9B3
:100510000012184670470121C160881E704742686A
:100520005AB1C368016843B983688B4205D0491E3C
:10053000521CC0E90012002070474FF0FF30704796
:10054000064C074D06E0E06840F0010394E8070020
:1005500098471034AC42F6D3FFF71AFEBC280008C7
:10056000DC280008C0B24FF4F05100F097B9000049
:100570002DE9F34F8BB04FF0000801F10C000C4651
:100580004FF0010B46460DF1080A01906269012106
:1005900001989047051E2DD0252D2CD0216A884723
:1005A000C0B16269012101989047216A88470028FB
:1005B000F7D1411E62690198904700E0761CA1695D
:1005C0000B988847216A88470028F7D1E1690B9882
:1005D0008847DBE7A1690B9888470746A84201D105
:1005E000761CD3E7E1690B9888477F1C02D1B8F1EC
:1005F000000F6FD046E1002762693D4639460198F9
:1006000090472A2804D16269012101989047012569
:10061000DFF884926269012101989047A0F13001CE
:100620000A290AD24F45E5DC07EB870100EB4107B9
:10063000303FDFD445F01005ECE7E90601D46FF058
:1006400000476C280AD04C2814D0682815D06A2896
:100650000DD074281CD07A281AD01DE062690121BF
:10066000019890476C2802D045F0040514E045F04D
:1006700002050DE045F020050AE0626901210198BC
:100680009047682802D045F0080505E045F400656C
:100690006269012101989047C4E9015765283DD05E
:1006A00019DC58287AD00CDC452837D004DC252802
:1006B00026D0412831D131E046282FD047282CD1EF
:1006C0002CE05B2877D0612828D063287CD0642870
:1006D00023D15AE0D0E06F2848D008DC66281DD02E
:1006E00067281BD0692821D06E2816D127E07028F2
:1006F00045D0732868D0752847D078280DD14DE0B3
:10070000A1690B988847054625283FF469AFE16940
:100710000B9888476D1C3FF46AAFB3E023466A46E6
:100720006FF001000B99AFF300809EE045F04000B0
:100730006060A80723464FF0000236D43EE0E80789
:100740007FF447AF2068011D21600068290501D5AD
:1007500006701BE7290701D5068017E7A90703D50F
:10076000F117C0E9006111E706600FE745F04000AE
:100770006060A80723464FF0080216D41EE040F63A
:100780000E0125EA0100606016E045F0400060605F
:10079000A80723464FF00A0207D40FE045F04000B7
:1007A0006060A80708D5234610226FF001000B995E
:1007B000AFF3008059E007E0234610226FF00100FC
:1007C0000B99FFF74FFD50E04FF000094F464B46A5
:1007D000632802D05B2806D040E0E80601D401205F
:1007E000A06001273AE062690121019890475E28E4
:1007F00005D14FF001096269494601989047216986
:1008000039B900210A46534643F82120491C0829DA
:10081000FADBB0B3216969B9C11700EBD16253119A
:100820000AEB830122F01F02821A01200B6890401C
:1008300003430B6062690121019890475D28E8D16C
:10084000B9F1000F09D00020514651F82020D243C1
:1008500041F82020401C0828F7DB02AB2246009715
:100860006FF001000B99FFF7A3FD00280CDA401C84
:1008700008D1BBF1000F05D04FF0FF300DB0BDE83F
:10088000F08FFFE74046F9E7E90701D108F10108D9
:1008900006444FF0000B79E6CCCCCC0C7F2801D974
:1008A000002208E0064A02EB5002C007127800D18D
:1008B000120902F00F02012090400840704700002A
:1008C0005C28000870B58C1810F8015B15F0070360
:1008D00001D110F8013B2A1106D110F8012B03E0D9
:1008E00010F8016B01F8016B5B1EF9D12B0705D4E1
:1008F0000023521E0DD401F8013BFAE710F8013B2A
:10090000CB1A921C03E013F8015B01F8015B521E45
:10091000F9D5A142D8D3002070BD000030B59DB0FC
:1009200035A207CA1AAB07C336A2D2E900109268F3
:10093000CDE918021791142112A8FFF75AFC2822BA
:1009400033A108A8FFF73CFC002400200790069084
:1009500005900490039006A807AB12AA36A1009058
:100960001AA8FFF763FC05A804AB03AA35A1009001
:1009700017A8FFF75BFC12A908A8FFF745FC08A918
:10098000401A032190FBF1F0441C6421069890FB6F
:10099000F1F201FB1200C5B2284600F038F98DF8DB
:1009A0000700E0B200F033F98DF805000799C8B2EE
:1009B00000F02DF98DF8060000208DF80B0003994A
:1009C000C8B200F024F98DF808000499C8B200F00C
:1009D0001EF98DF809000599C8B200F018F98DF8D4
:1009E0000A0001A9012000F043FC02A9012000F047
:1009F000A3FC1DB030BD00004A756E2020342032AB
:100A00003031360031353A31393A333100000000A7
:100A10004A616E4665624D61724170724D61794AFC
:100A2000756E4A756C4175675365704F63744E6F90
:100A3000764465630000000025732025642025644A
:100A40000000000025643A25643A25640000000097
:100A50000EB50121080700F05BFA012000F040FA12
:100A6000012000F065FA002000F062FA012000F099
:100A7000F9FA00BF412000F0D5FA0028FAD04FF46F
:100A8000807000F00BFB012000F002FB002000F062
:100A9000EBFC00F03BFB002000907C200190FE204E
:100AA0000290684600F0B2FB00F058FB012000F015
:100AB000DBFCFFF733FF0EBD10B500F051F901F07C
:100AC00039FE00F0B1F8FFF7C3FF10BD00BFFEE72D
:100AD00010B500F0FDFC10BD0246094B9A4201D250
:100AE000084801E00648103801F000531BB1064BDE
:100AF0000B40C36002E0044B0B4083607047000072
:100B000010640240006002407D0F7D0F7047014677
:100B100005E0002001E0421C90B20F28FBDB0A1E1A
:100B2000A1F1010399B2F4D170477047F0B50A46BC
:100B300000210023002400BF3DE0012505FA01F358
:100B4000156805EA03049C4234D105684F0003266A
:100B5000BE40B543056015794E00B5400668354383
:100B600005601579012D02D01579022D16D1856801
:100B70004F000326BE40B543856055794E00B54011
:100B8000866835438560456801268E40B5434560DB
:100B9000456896798E40B6B235434560C5684F00CA
:100BA0000326BE40B543C560D5794E00B540C66842
:100BB0003543C560491C1029BFD3F0BDF0B50023F3
:100BC00000244D07ED0E02FA05F3CE1000F12005CA
:100BD00055F826504E07F70E0F26BE40B543CF10EE
:100BE00000F1200646F82750CE1000F1200555F8F8
:100BF000265045EA0304CE1000F1200545F82640B2
:100C0000F0BD418370470183704700BFFEE7014696
:100C10000A2291FBF2F302FB13120A2391FBF3F376
:100C200042EA0312D0B2704710B500F03BF8402101
:100C30001B48FFF7E6FFFA20FFF769FF402118483D
:100C4000FFF7E1FFE22000F0B1FEFA20FFF75FFFBF
:100C5000AE2000F0ABFEA02000F0A8FE402000F087
:100C6000A5FEC22000F0A2FE882000F09FFEA62074
:100C700000F09CFEA42000F099FEA12000F096FE5A
:100C80002F2000F093FE262000F090FE812000F03F
:100C90008DFEC02000F08AFEAF2000F087FE10BD60
:100CA000001002401CB50121082000F021F90121AB
:100CB000102000F01DF94FF44050009001208DF8F5
:100CC000040000208DF8060003208DF805000020A8
:100CD0008DF8070069460B48FFF728FF7020009049
:100CE00001208DF8040000208DF8060003208DF807
:100CF000050000208DF8070069460348FFF716FF3E
:100D00001CBD0000000C02400010024010B5AF20D6
:100D100000F04CFE10BD000070B5FFF7F7FF002497
:100D200018E004F1B001C8B200F040FE102000F05D
:100D30003DFE042000F03AFE002507E0074901EBE4
:100D4000C411485D00F04AFE681CC5B2802DF5DB79
:100D5000601CC4B2082CE4DB70BD0000BC050020A0
:100D60001CB50121102000F0C3F80F2000900120D5
:100D70008DF8040000208DF8060003208DF8050092
:100D800000208DF8070069460148FFF7CFFE1CBD23
:100D90000010024010B5044634B1012C09D0022CD9
:100DA0000CD0032C14D10EE001210B48FFF72BFFD0
:100DB0000FE002210848FFF726FF0AE00421064859
:100DC000FFF721FF05E008210348FFF71CFF00E0C3
:100DD00000BF00BF10BD00000010024010B5044667
:100DE00034B1012C09D0022C0CD0032C14D10EE00C
:100DF00001210B48FFF705FF0FE002210848FFF72C
:100E000000FF0AE004210648FFF7FBFE05E0082189
:100E10000348FFF7F6FE00E000BF00BF10BD000072
:100E20000010024000BFFEE77047000070B50021CF
:100E300000230F22C4781CB3174C246804F4E06428
:100E4000C4F5E064C4F30721C1F10404E3B20A412C
:100E500044789C40E1B28478144021430C07210E71
:100E60000E4C05786155047804F01F050124AC4050
:100E700005786D11AD0005F1E025C5F8004109E0E8
:100E8000047804F01F050124AC40054D0678761166
:100E900045F8264070BD00000CED00E000E400E0E5
:100EA00080E100E002490143024A116070470000FE
:100EB0000000FA050CED00E010B5002807DA0A077B
:100EC000140E054A00F00F031B1FD45403E00A0759
:100ED000130E024A135410BD18ED00E000E400E0C8
:100EE000014908627047000000000E427047000090
:100EF00029B1064A12680243044B1A6004E0034A0F
:100F000012688243014B1A6070470000303802407B
:100F100029B1064A12680243044B1A6004E0034AEE
:100F200012688243014B1A6070470000403802404B
:100F30000149086070470000400E4742F0B50021AB
:100F400000220024022500260223324F3F6807F0CA
:100F50000C0121B1042905D0082937D105E02E4F15
:100F6000076036E02D4F076033E02A4F3F1F3F6890
:100F7000C7F38056274F3F1F3F6807F03F036EB10E
:100F8000264FB7FBF3F7DFF88CC0ACF1040CDCF8AC
:100F900000C0CCF3881C07FB0CF40CE01E4FB7FB21
:100FA000F3F7DFF870C0ACF1040CDCF800C0CCF350
:100FB000881C07FB0CF4174F3F1F3F68C7F301471E
:100FC0007F1C7D00B4FBF5F7076002E0124F07605D
:100FD00000BF00BF0F4F3F6807F0F0010909104F35
:100FE0007A5C0768D74047600A4F3F6807F4E051D2
:100FF000890A0B4F7A5C4768D7408760054F3F6886
:1010000007F46041490B064F7A5C4768D740C760D8
:10101000F0BD0000083802400024F40040787D0153
:101020001400002010B501460022002300204A11C0
:10103000012A02D10A4C236808E0022A03D1084C95
:101040007034236802E0064C7434236801F01F02F8
:10105000012494401C400CB1012000E0002010BD90
:10106000003802400021094A11701170012802D095
:10107000042808D103E00121044A117004E005218D
:10108000024A117000E000BF00BF70477038024094
:1010900001490860704700003C0E4742002100F4FF
:1010A0004072B2F5407F08D1094A116821F4F81165
:1010B000084A02401143064A1160054A6832126824
:1010C000C0F30B031A43024B68331A6070470000E9
:1010D00008380240FFFCFF0F014600BF080900EB83
:1010E0008000420001F00F001044C0B2704701467A
:1010F000002204E0501CC2B2A1F10A00C1B20A29C8
:10110000F8DA100741EA10607047000008B50022C5
:10111000009200200021104A126802F04002CAB971
:10112000421E0D4B1A6000BF0B4A126802F04001CC
:10113000009A521C0092009AB2F5803F01D000291B
:10114000F2D0054A126802F040020AB1012002E022
:10115000002000E0012008BD0C2800400348006882
:1011600020F0800001490860704700000C28004012
:1011700070B506460C4600250E4800680E4900EA88
:101180000105280CE070C5F30420607005F03F00F5
:10119000A070C5F3423020705EB9E078FFF79CFF85
:1011A000E0706078FFF798FF6070A078FFF794FF19
:1011B000A07070BD042800403FFFFF0070B50646D8
:1011C0000C4600250F4800680F4900EA0105C5F3E9
:1011D00005402070C5F30620607005F07F00A07008
:1011E00005F48000000CE0705EB92078FFF774FF12
:1011F00020706078FFF770FF6070A078FFF76CFFD9
:10120000A07070BD002800407F7F7F0030B504468D
:101210000025CA201549086053200860FFF776FFB3
:1012200000B91DE011481C38006820F040000F494B
:101230001C39086008460068216808430B491C39BE
:1012400008600A491439A068086008460068A18847
:1012500040EA0140054914390860FFF77FFF012586
:10126000FF2002490860284630BD000024280040C5
:101270002DE9F04105460C46002600274DB960785F
:1012800000F01000102804D1607820F010000A301F
:10129000607005B908E06078FFF71EFF0646A07889
:1012A000FFF71AFF064600BF55B1E07800046178E9
:1012B00040EA0120A1780843217840EA413611E054
:1012C000E078FFF714FF4FEA00486078FFF70FFF60
:1012D00048EA0028A078FFF70AFF48EA00082078CB
:1012E00048EA4036CA201249086053200860FFF7D8
:1012F0000DFF08B9002714E00E4830400C49203992
:101300000860FFF72BFF0A481C38006800F0200037
:1013100030B900F079F808B9002702E0012700E0B1
:101320000127FF20024908603846BDE8F08100002F
:10133000242800403FFFFF002DE9F04105460C4600
:10134000002600274DB92E48006800F0400000B18B
:1013500002E00020E07000BF0DE02948006800F0C6
:10136000400020B12078FFF7B7FE064602E00020DB
:10137000E07000BF00BF55B120780004617840EAFA
:101380000120A1780843E17840EA014611E0207885
:10139000FFF7ADFE4FEA00486078FFF7A8FE48EA85
:1013A0000028A078FFF7A3FE48EA0008E07848EAA2
:1013B0000046CA2012491C31086053200860FFF71C
:1013C000A5FE08B9002713E00E4830400C49083943
:1013D0000860FFF7C3FE0A48006800F0200030B93B
:1013E00000F012F808B9002702E0012700E0012709
:1013F000FF2003491C3108603846BDE8F081000039
:10140000082800407F7F7F0008B50022009200205E
:101410000021CA22134B1A6053221A60114A183A4B
:10142000126822F0A0020F4B183B1A6000BF0D4A51
:10143000183A126802F02001009A521C0092009A99
:10144000B2F5003F01D00029F1D0064A183A1268DF
:1014500002F020020AB1012000E00020FF22014B2F
:101460001A6008BD2428004018B1FF21044A116009
:1014700004E0CA21024A1160532111607047000044
:10148000242800400149086070470000382C0140C2
:1014900001460020034A12680A400AB1012000E018
:1014A00000207047342C014010B500F025F810BD25
:1014B00029B1064A12680243044B1A6004E0034A49
:1014C00012688243014B1A60704700003C2C0140B7
:1014D00010B50748006800F0C05040B10120054930
:1014E00008604FF0C25102485830FFF7F5FA10BDBE
:1014F000006402403800002010B54FF48070FFF700
:10150000C7FF50B10020254908704FF48070FFF7E5
:10151000B9FF01202249086037E00220FFF7B8FF39
:1015200030B10220FFF7AEFF02201C4908702CE00A
:101530000820FFF7ADFF30B10820FFF7A3FF04201C
:101540001649087021E02020FFF7A2FF30B12020CB
:10155000FFF798FF06201149087016E01020FFF7EA
:1015600097FF30B11020FFF78DFF05200B49087061
:101570000BE04FF40070FFF78BFF30B14FF40070B9
:10158000FFF780FF07200549087000214CF23A3030
:10159000FFF78EFF0148007810BD000030000020EA
:1015A000340000207047000070B504462021134825
:1015B000FFF729FB0120FFF7AAFA00251AE004F043
:1015C000800020B910210D48FFF71BFB03E010211C
:1015D0000A48FFF718FB20210848FFF712FB0120FB
:1015E000FFF795FA20210548FFF70DFB6006040E72
:1015F000681CC5B2082DE2DB70BD0000001002407F
:101600000CB50020019000903448006840F4803010
:101610003249086000BF3148006800F40030009093
:101620000198401C0190009818B90198B0F5A04F9E
:10163000F1D12A48006800F4003010B10120009078
:1016400001E0002000900098012846D12348403056
:10165000006840F08050214940310860204800680F
:1016600040F440401E4908601C48083000681B498F
:10167000083108600846006840F4004008600846E9
:10168000006840F4A05008601648091F0860081F51
:10169000006840F08070091F086000BF0F480068B4
:1016A00000F000700028F9D040F205700E49086083
:1016B0000A480830006820F0030008490831086033
:1016C0000846006840F00200086000BF0348083088
:1016D000006800F00C000828F8D10CBD003802406A
:1016E0000070004019544007003C0240042808D113
:1016F0004FF0E021096941F004014FF0E02211614F
:1017000007E04FF0E021096921F004014FF0E022E9
:101710001161704710B512480068401C10490860FC
:1017200010480068401C0F49086000F0EDFC38B11B
:1017300000F0DEFC0A490968884201D800F0EEFC9E
:1017400009480068401E0849086038B90748006821
:10175000401C0649086064200349086010BD000071
:101760003805002044050020400500203C050020ED
:1017700010B51548006840F470001349086013481C
:10178000006840F001001149086000200F4908314D
:1017900008600E4800680E4908400C4908600D4872
:1017A000091D0860081F006820F48020091F0860D8
:1017B000002006490C310860FFF722FF4FF000605F
:1017C00001498039086010BD88ED00E00038024012
:1017D000FFFFF6FE1030002421B1828942F400524E
:1017E000828104E082894DF6FF731A40828170473E
:1017F00002460020B1F5007F00D100BF13880B40E6
:101800000BB1012000E000207047F0B50346002432
:1018100000260025002040F66A17B94200D100BF1B
:101820001846C1F3421401F01F06012707FA06F516
:10183000012C01D10C3004E0022C01D1103000E069
:1018400014301AB107682F43076002E00768AF43FE
:101850000760F0BD2DE9FF4705460E460024A1466E
:1018600000BFA046B08900B100BF2C8A24F44054C8
:10187000F08804432C82AC8941F20C608443B08828
:1018800031890843718908430443AC81AC8A24F44C
:101890004074B0890443AC826846FFF74FFB204890
:1018A000854202D01F48854202D1DDF80C9001E04C
:1018B000DDF80890A88900F4004040B109EBC900A8
:1018C00000EB091031684900B0FBF1F707E009EBC4
:1018D000C90000EB091031688900B0FBF1F7642002
:1018E000B7FBF0F004012009642101FB1078A889FE
:1018F00000F4004040B1322000EBC800B0FBF1F032
:1019000000F00700044308E0322000EB08106421D7
:10191000B0FBF1F000F00F0004432C81BDE8FF871D
:101920000010014000140140C1F30802828070479A
:1019300000BFFEE7F0B503460C460021002000BFC3
:101940000EE000EB0016174FBE5D1778BE4205D1C2
:1019500000EB0016134F3E44751C03E0461CF0B22A
:101960004B28EEDB00BF4B2801D10E4D6D1C002132
:1019700014E000200EE0082606FB0106AE5D5F18AD
:10198000DFF824C00CEBC71704EB000C07F80C6061
:10199000461CF0B20828EEDB4E1CF1B20229E8DB4F
:1019A000F0BD00003C000020BC05002010B504463E
:1019B0004FF480510848FFF724F94FF400510648CE
:1019C000FFF71FF92046FFF7EFFD4FF48051024863
:1019D000FFF719F910BD0000000C024010B50446D5
:1019E0004FF480510848FFF70CF94FF400510648B6
:1019F000FFF709F92046FFF7D7FD4FF48051024861
:101A0000FFF701F910BD0000000C02400FB4054BB8
:101A100010B503A9044A029800F02CF810BC5DF838
:101A200014FB0000E5210008B80500200FB4084BA6
:101A300010B504A902AA039800F01CF8044602A9F4
:101A4000002000F0B8F9204610BC5DF814FB00003F
:101A5000B71D000802E008C8121F08C1002AFAD109
:101A600070477047002001E001C1121F002AFBD11E
:101A7000704700002DE9FF4F8BB0884605460026D1
:101A800006E025280BD0DDE90D1290476D1C761C71
:101A900028780028F5D10FB03046BDE8F08F00243B
:101AA000A146A2460122AE4900E0044315F8013FD9
:101AB000203B02FA03F00842F7D128782A2810D0F8
:101AC0006FF02F022878A0F13001092915D809EB11
:101AD000890102EB410144F0020400EB01096D1C95
:101AE000F0E758F8041B5FEA010903D544F40054F9
:101AF000C9F1000944F002046D1C28782E2817D182
:101B000015F8010F44F004042A280ED06FF02F02BC
:101B10002878A0F1300109290AD80AEB8A0102EBE2
:101B2000410100EB010A6D1CF2E758F804AB6D1C93
:101B300028786C280FD006DC4C2817D068280DD0E8
:101B40006A2814D104E0742810D07A280FD10DE04F
:101B500044F400140AE044F4801401E044F4401416
:101B60006978814202D104F580146D1C6D1C2878BF
:101B7000692865D006DC00288DD0632827D064282A
:101B800006D15DE06E2808D073282AD0752877D05A
:101B9000DDE90D129047761CE0E0C4F30250022804
:101BA00009D003280DD0D8F8001004280DD00E60FD
:101BB00008F10408D2E0D8F80010F217C1E9006279
:101BC000F6E7D8F800100E80F2E70E70F0E718F88C
:101BD000041B8DF8001000208DF80100EB46012059
:101BE00003E058F804BB4FF0FF3061074FF00007E7
:101BF00001D40AE07F1C57450DDA8742FADB1BF857
:101C000007100029F6D106E07F1C8742FCDB1BF899
:101C100007100029F8D1DDE90D23A9EB0700814663
:101C2000214600F0B1F83044C61904E0DDE90D1298
:101C30001BF8010B90477F1EF8D22146484688E0EA
:101C400058F8040BC4F302514FF00A0B032900D1DA
:101C500000B2042900D140B2002802DA40422D210E
:101C600002E0210505D52B218DF82410012104E087
:101C700006E0E10710D02021F6E708AF089113E055
:101C800058F8040BC4F302514FF00A0B032900D19A
:101C900080B2042900D1C0B20021EEE75946FEF718
:101CA000F7FB303107F8011D0028F7D1ADEB070035
:101CB00000F1200B600702D524F4803401E04FF0DE
:101CC000010ADA4502DDAAEB0B0000E000208246A3
:101CD00000EB0B0108980144A9EB01000A90E00316
:101CE00006D4DDE90D2321460A9800F04DF806449C
:101CF0004FF0000908E009A911F80900DDE90D120B
:101D0000904709F10109761C08998945F3DBE00346
:101D10000CD5DDE90D2321460A9800F035F806447C
:101D200004E0DDE90D1230209047761CBAF1000185
:101D3000AAF1010AF5DC05E0DDE90D1217F8010B47
:101D40009047761CBBF10001ABF1010BF4DC0A9863
:101D50002146DDE90D2300F005F806446D1C97E6E9
:101D6000092801002DE9F041044600251E461746CA
:101D7000880404D405E039462020B0476D1C641E59
:101D8000F9D52846BDE8F0812DE9F041044600254B
:101D90001E469046C80301D5302700E0202788045E
:101DA00004D505E041463846B0476D1C641EF9D5A0
:101DB0002846BDE8F0810A68531C0B60107070471C
:101DC00070B5044600F0AAF9E06868B10C480568EF
:101DD00008E0A54205D10B480068E06000F012FD64
:101DE00070BDAD68002DF4D106480068E06004487D
:101DF0000068A0600248046000F004FD00BFEFE747
:101E0000800500209C05002070B50446002505E0F3
:101E100054F82500002100F0D5FA6D1C54F8250077
:101E20000028F5D170BD00002DE9F04104460E46B2
:101E30001746A07B00F00100C8B1A068B8B10D48FA
:101E400004600220A0733A46314604F10C00A368F6
:101E500098470546022D03D0032D01D0832E04D1CF
:101E60002146204600F06EF901E00120A073BDE894
:101E7000F08100009C05002010B514480068C008DF
:101E80006421B0FBF1F4601EB0F1807F01D301202A
:101E90000FE0601E4FF0E02148610F214FF0FF304E
:101EA000FFF70AF800204FF0E02188610720086161
:101EB000002008B100BFFEE76FF00400FFF716FC3A
:101EC0000621C81FFEF7F8FF10BD0000000000202B
:101ED00001480068704700003805002010B58AB03E
:101EE00027A2D2E900109268CDE90702069127A245
:101EF00007CA03AB07C302A90020FFF739F99DF811
:101F00000A0000909DF809309DF80B2022A106A838
:101F1000FFF78CFD06A925A0FFF778FD09A9002091
:101F2000FFF74CF99DF8260000909DF825309DF8AC
:101F3000242020A103A8FFF779FD03A91BA0FFF728
:101F400065FD002408E006A80219E006010E002045
:101F5000FFF7F0FC601CC4B20A2CF4DB002408E09C
:101F600003A80219E006010E0220FFF7E3FC601C43
:101F7000C4B2082CF4DBFEF7CFFE0AB010BD00009F
:101F8000323031362D30362D3034000030303A309A
:101F9000303A3030000000003230253032642D25D8
:101FA0003032642D25303264000000000D0A2573A4
:101FB00000000000253032643A253032643A253082
:101FC0003264000010B53048007800285BDD2F48EF
:101FD000007800EB40002E4911F820002D490870D0
:101FE0002A48007800EB4000294901EB8000406856
:101FF000294908602548007800EB4000244901EB9E
:10200000800080682549086020490978481CC1176C
:1020100000EBD1614911A0EB41111C4A11701A4823
:102020000078401E184908701C480068D8B91C4840
:1020300000681C49086011E01B48007808B100F0F6
:1020400035F8154802681348017816480068FFF70C
:10205000EBFE1448006800681249086011480068E7
:102060000028E9D10FE00B480078812803D1012036
:102070000A490968887308480268064801780748D1
:102080000068FFF7D1FE10BDA1050020A2050020C9
:10209000DC090020A4050020A8050020AC050020D4
:1020A00098050020B0050020A305002010B50020F1
:1020B00009490870094804680BE0E07B40B1012041
:1020C000A0730020E073002282212046FFF7ACFEBF
:1020D0002468002CF1D110BDA30500209805002034
:1020E0000146C86808B9012070470020FCE70000DD
:1020F00000B500F009F810B10248006800BD0020EA
:10210000FCE70000840500200348006808B10120B6
:1021100070470020FCE700008005002010B5024851
:1021200000F0E4F810BD00008805002070B50446FA
:102130000D462946204600F0F5FA2046FFF740FEFE
:1021400070BD00002DE9F04104460E4623480768A3
:102150002348056800E02D68A54201D0002DFAD182
:102160000DB9BDE8F081204600F0B8F8D0B10020EC
:10217000A0731B48056807E0AC4204D022468721C3
:102180002846FFF751FE2D68002DF5D1A06848B113
:10219000B44207D0114804600022832104F10C00EE
:1021A000A36898470E480068844205D10C4800682F
:1021B00000680B4908600CE00948056806E02868DB
:1021C000A04202D12068286002E02D68002DF6D1DF
:1021D00000BF0248076000BFC3E700009C05002065
:1021E0009805002070B504460D46E1B20548FFF79A
:1021F0009BFB00BF40210348FFF7FAFA0028F9D003
:10220000204670BD00480040FEF756FC12A0FFF7C4
:10221000FDFB164916A0FFF7F9FBFFF72DFE00F0B6
:1022200045F80021184800F0CDF80021174800F0CB
:10223000C9F81748FFF7E8FD16A0FFF7E7FB09E02C
:1022400000BF00F0ADF80028FBDC17480068401C18
:1022500015490860F4E700000D0A496E6974696168
:102260006C6973696E670D0A000000004805002064
:102270000D0A436F6D70696C652074696D65206926
:10228000733A2573000000008805002070050020C7
:102290005428000850726F636573736573207275FC
:1022A0006E6E696E670D0A005C0500208A20064983
:1022B0000870002005490870054908700549086044
:1022C0000549086070470000A0050020A205002015
:1022D000A1050020980500209C0500200146887B70
:1022E00008B1012070470020FCE7000048B1817B65
:1022F000012902D0817B022903D10121C173014A46
:1023000011707047A305002030B5034617480078C8
:10231000202801D1012030BD154C2478134D2D7893
:102320002C44E0B2C41700EBD4646411A0EB441455
:10233000104D2C702846007800EB40000E4C04F83D
:1023400020102846007800EB400004EB800042603B
:102350002846007800EB400004EB800083600348CF
:102360000078401C014C20700020D4E7A10500201B
:10237000A2050020B4050020DC0900202DE9F04171
:1023800004460D461646054807683246294620464B
:10239000FFF74AFD01480760BDE8F0819C05002079
:1023A00010B50648007808B1FFF780FEFFF70AFE77
:1023B0000348007801490978084410BDA3050020AE
:1023C000A105002070B504460E460D48056800E0E2
:1023D0002D68A54201D0002DFAD1A54200D170BDD3
:1023E000074800682060064804600120A0730020B0
:1023F000A081324681212046FFF7C0FF00BFEEE7F3
:10240000980500202DE9F04104460E4617460125A7
:10241000208829285DD007DC78B120281CD023280B
:102420002FD0262870D140E02D2866D030287BD0D0
:1024300033286BD03628F5D19EE0A8E057480168D4
:1024400057A0FFF7E3FA64215948FFF76FFE00BF7A
:1024500000252020208000BF1DB15548FFF740FE19
:1024600010B90120BDE8F08100BF0020FEF7B6FCE6
:1024700064214F48FFF75AFE00BF0025232020802B
:1024800000BF1DB14A48FFF72BFE08B90120E9E75C
:1024900000BF0120FEF7A2FC64214548FFF746FE7D
:1024A00000BF00252620208000BF1DB14048FFF757
:1024B00017FE08B90120D5E700BF0220FEF78EFC09
:1024C00064213B48FFF732FE00BF00252920208011
:1024D00000BF1DB13648FFF703FE08B90120C1E770
:1024E00000BF0320FEF77AFC64213148FFF71EFE8F
:1024F00000BF00252D20208000BF1DB12C48FFF714
:10250000EFFD20B90120ADE742E00DE020E000BF83
:102510000020FEF73FFC64212548FFF707FE00BFBF
:1025200000253020208000BF1DB12148FFF7D8FDD5
:1025300008B9012096E700BF0120FEF72BFC6421BB
:102540001B48FFF7F3FD00BF00253320208000BFAC
:102550001DB11748FFF7C4FD08B9012082E700BF8D
:102560000220FEF717FC64211148FFF7DFFD00BFD2
:1025700000253620208000BF1DB10D48FFF7B0FDBB
:1025800008B901206EE700BF0320FEF703FC55E702
:10259000002500202080032064E70000440500207F
:1025A0000D0A206C65642074696D65202564000047
:1025B000BC0900202DE9F04705460E4690464FF035
:1025C0000109288810B159285DD109E0002031495E
:1025D000086057E000BF4FF000095920288000BF75
:1025E000B9F1000F02D10120BDE8F08700BF872EAE
:1025F00021D1404604E0274909688968254A1160CD
:102600002449096821B123490968C9688142F2D087
:102610002049096871B11F490C6808E0A168C968C0
:10262000814203D1A1688968A16000E0A468A16823
:102630000029F3D126E0822E00D023E000BF00273E
:10264000144804681BE0204600F05EF8A8B122465A
:102650008821E068FFF758FE68B90020E06017B1F4
:10266000A068B86002E00B49A06808600020A06084
:1026700000F0C8F8E3E7FFF751FD2746A468002CF7
:10268000E1D100BFA6E74FF0000900202880032019
:10269000AAE70000800500202DE9F04104460E461F
:1026A00017460125208810B14B281BD10EE018E0F9
:1026B0000F4801680FA0FFF7A9F964211148FFF73F
:1026C00035FD00BF00254B20208000BF1DB10D4807
:1026D000FFF706FD10B90120BDE8F08100BFFFF74C
:1026E000FDFBE5E70025002020800320F4E7000043
:1026F000440500200D0A206C63642074696D652018
:1027000025640000CC09002070B50446FFF7E0FB0B
:102710002168401A451C6068A84201D2012070BDA2
:102720000020FCE770B504460D466560FFF7D0FB5E
:10273000206070BD00B587B001210420FEF7D8FBF2
:1027400001218804FEF7E4FB07220A212B48FEF74B
:1027500035FA07220B212948FEF730FA02208DF8BE
:10276000040003208DF8050000208DF806000120EC
:102770008DF807008002009069462048FEF7D6F9E0
:102780004FF40060009069461C48FEF7CFF94FF403
:10279000E13003904FF48050ADF810000020ADF808
:1027A00012004FF48060ADF814000020ADF818005E
:1027B0000C20ADF8160003A91148FFF74BF84FF4B1
:1027C000A060FEF76FFB27208DF8080000208DF831
:1027D00009008DF80A0001208DF80B0002A8FEF711
:1027E00025FB01210648FEF7F7FF012240F22551A3
:1027F0000348FFF70AF807B000BD000000080240D8
:102800000048004070B51149096819B90021104A03
:10281000116019E0FFF75CFB0C490C68D4E9001269
:1028200011440D1AA4680AE0D4E900121144091AEF
:10283000A94203D2D4E9001211440D1AA468002C55
:10284000F2D14119024A116070BD000080050020DC
:10285000840500206005002000000000DDDDDDDDD6
:10286000DCBBBBDDDDDDDDDDDDDDDDDD9888888821
:1028700088888888777777777788888885555556C8
:10288000666666666666666666688888833333321F
:1028900022222222222222222228888D426C696E44
:1028A0006B0000004C636472656675720000000086
:1028B0004576656E742074696D657200DC280008C9
:1028C00000000020BC050000C4080008682C0008B7
:1028D000BC050020A4090000641A000811847A03D2
:1028E0000A680901020304060708090CA91001146B
:1028F000123027E010080810E0170F102020100FEA
:102900001231541010F82620203F202012321F7060
:1029100008080888702C162824222130123327300A
:1029200008888848301718202020110E22343BC018
:10293000203517070424243F2412351AF8222308CF
:10294000083B1921221A3666348888183B0F11116A
:1029500012371E380808C8382221423F12381A7030
:10296000312966171C222121221C7A39991116312E
:102970002222110F198BE122611A800131180B19E3
:10298000242222223F206208F8123953496632631A
:1029900049221A0E111320113A64111A88AB291119
:1029A0007D103F2065441A1F431322131A66102B13
:1029B000F088AC1D20203F20744A67221923176B32
:1029C00094949493603A686619102C203F21051363
:1029D00020695480989859332A6A6639131AC02995
:1029E0001A7F3A193339341008203F24022D302041
:1029F000126C2A081389333A6D6439221220290394
:102A00001A6E0CB9668A6FAA19CB13201F3A70226E
:102A1000296B3BFFA1EE4A71EE191329DD2DA0FFB2
:102A200080720D39551945122012017A73CC1B336F
:102A3000240112191A74103AE0453957214A755287
:102A4000190529663D103F20762F290517010E3004
:102A50000806012A7754291110080F300C030C3096
:102A60000F2A782F49AB16312E0E31206A79331E8A
:102A700080818E7018334A7A7619151721302C22EE
:102A8000213022412CC038E0FE380F3C23020227BF
:102A900038204208F888888870E939CC1D43C03056
:102AA000080112382B07188812081C4408F8104B2C
:102AB00010E02213100F2A45333CE80810111423AC
:102AC00020189A46111132033A47442238294414F7
:102AD000221E021A4844211905100A203F21010133
:102AE000213F20492A085729892946211A4A1F3996
:102AF000121AC0AF327F1A4B552DC0281808551531
:102B0000012638203A4C4429322988132030154DAB
:102B100008F8F81AF81513203F190212204E4E0833
:102B2000F830C0661A207B123F4C4FE010BB4B0FB1
:102B300010BB3A50CC1B08F033198822017A51227D
:102B40001718242438504F2A52CC4C888870CC1542
:102B50000C3020534B7088CD1738202121221C3B8C
:102B60005418A94A188A316A55DD112A1F99121F73
:102B700025560878881BC838161C07380E661A5761
:102B80001C1AF8221114033C0714073C034816587A
:102B9000081868808068180820302C03032C302027
:102BA000590838C83259552A5A982911100820381E
:102BB0002621202018323A63C0C0333030322163DE
:102BC000F8F8333333322845E0180402150718208B
:102BD00040122945020418E0354020180710092A40
:102BE000404080F080404010080202010F010202C4
:102BF000922D4A0101322B5AF0101A1F04114B3D3D
:102C00004001114A040111125C5B0C30871115015F
:102C10000638C0422F15806018041C601806ED119C
:102C2000922E39A8211D25F008F09A29B4A61C037C
:102C30001E211E726490144A756E2020342032309A
:102C4000313631353A32303A3134139C2814080584
:102C50002482081AA4108B992610811AB0180B1020
:082C6000B52518011800000061
:040000050800018965
:00000001FF
