:020000040800F2
:10000000480600209D01000829040008210300087B
:10001000250400081D0200089909000800000000DE
:100020000000000000000000000000000F060008B3
:100030002302000800000000E10400087D0700081A
:10004000B7010008B7010008B7010008B7010008B0
:10005000B7010008B7010008B7010008B7010008A0
:10006000B7010008B7010008B7010008B701000890
:10007000B7010008B7010008B7010008B701000880
:10008000B7010008B7010008B7010008B701000870
:10009000B7010008B7010008B7010008B701000860
:1000A000B7010008B7010008B7010008B701000850
:1000B000B7010008B7010008B7010008B701000840
:1000C000B7010008B7010008B7010008B701000830
:1000D000B7010008B7010008B7010008B701000820
:1000E00041020008B7010008B7010008B701000885
:1000F000B7010008B7010008B7010008B701000800
:10010000B70100080D060008B7010008B701000894
:10011000B7010008B7010008B7010008B7010008DF
:10012000B7010008B7010008B70100082102000864
:10013000B7010008B7010008B7010008B7010008BF
:10014000B7010008B7010008B7010008B7010008AF
:10015000B7010008B7010008B7010008B70100089F
:10016000B7010008B7010008B7010008B70100088F
:10017000B7010008B7010008B7010008B70100087F
:10018000B7010008B7010008DFF80CD000F02EF826
:1001900000480047550F00084806002006488047E1
:1001A00006480047FEE7FEE7FEE7FEE7FEE7FEE75C
:1001B000FEE7FEE7FEE7FEE7D90700088901000831
:1001C00030B50B46014600202022012409E021FA27
:1001D00002F59D4205D303FA02F5491B04FA02F524
:1001E0002844151EA2F10102F1DC30BD064C074D7A
:1001F00006E0E06840F0010394E8070098471034F7
:10020000AC42F6D3FFF7C4FFF81500081816000833
:1002100010B500F0A5F801F04BF910BD00BFFEE7E6
:1002200070477047014605E0002001E0421C90B293
:10023000FF28FBDB0A1EA1F1010399B2F4D170473C
:100240007047F0B50A4600210023002400BF3DE0BE
:10025000012505FA01F3156805EA03049C4234D12F
:1002600005684F000326BE40B543056015794E0072
:10027000B5400668354305601579012D02D0157922
:10028000022D16D185684F000326BE40B543856018
:1002900055794E00B540866835438560456801262E
:1002A0008E40B5434560456896798E40B6B2354379
:1002B0004560C5684F000326BE40B543C560D5798B
:1002C0004E00B540C6683543C560491C1029BFD3F0
:1002D000F0BDF0B5002300244D07ED0E02FA05F342
:1002E000CE1000F1200555F826504E07F70E0F26C8
:1002F000BE40B543CF1000F1200646F82750CE107F
:1003000000F1200555F8265045EA0304CE1000F10F
:10031000200545F82640F0BD4183704701837047B2
:1003200000BFFEE770B50646002415E004F1B001F9
:10033000C8B200F033FB102000F030FB002000F0CA
:100340002DFB002504E0304600F040FB681CC5B2E0
:10035000802DF8DB601CC4B2082CE7DB70BD000008
:100360001CB50121102000F0BDF80F2000900120E5
:100370008DF8040000208DF8060003208DF805009C
:1003800000208DF8070069460148FFF75AFF1CBDA1
:100390000010024010B5044634B1012C09D0022CE3
:1003A0000CD0032C14D10EE001210B48FFF7B6FF4F
:1003B0000FE002210848FFF7B1FF0AE004210648D8
:1003C000FFF7ACFF05E008210348FFF7A7FF00E0B7
:1003D00000BF00BF10BD00000010024010B5044671
:1003E00034B1012C09D0022C0CD0032C14D10EE016
:1003F00001210B48FFF790FF0FE002210848FFF7AB
:100400008BFF0AE004210648FFF786FF05E008217C
:100410000348FFF781FF00E000BF00BF10BD0000F0
:100420000010024000BFFEE77047000070B50021D9
:1004300000230F22C4781CB3174C246804F4E06432
:10044000C4F5E064C4F30721C1F10404E3B20A4136
:1004500044789C40E1B28478144021430C07210E7B
:100460000E4C05786155047804F01F050124AC405A
:1004700005786D11AD0005F1E025C5F8004109E0F2
:10048000047804F01F050124AC40054D0678761170
:1004900045F8264070BD00000CED00E000E400E0EF
:1004A00080E100E002490143024A11607047000008
:1004B0000000FA050CED00E010B5002807DA0A0785
:1004C000140E054A00F00F031B1FD45403E00A0763
:1004D000130E024A135410BD18ED00E000E400E0D2
:1004E0007047000029B1064A12680243044B1A60A3
:1004F00004E0034A12688243014B1A60704700000F
:100500003038024029B1064A12680243044B1A608F
:1005100004E0034A12688243014B1A6070470000EE
:1005200040380240F0B500210022002402250026B8
:100530000223324F3F6807F00C0121B1042905D096
:10054000082937D105E02E4F076036E02D4F0760B0
:1005500033E02A4F3F1F3F68C7F38056274F3F1FA6
:100560003F6807F03F036EB1264FB7FBF3F7DFF8A4
:100570008CC0ACF1040CDCF800C0CCF3881C07FB89
:100580000CF40CE01E4FB7FBF3F7DFF870C0ACF1D2
:10059000040CDCF800C0CCF3881C07FB0CF4174FEC
:1005A0003F1F3F68C7F301477F1C7D00B4FBF5F791
:1005B000076002E0124F076000BF00BF0F4F3F68A7
:1005C00007F0F0010909104F7A5C0768D7404760CF
:1005D0000A4F3F6807F4E051890A0B4F7A5C47687D
:1005E000D7408760054F3F6807F46041490B064FCD
:1005F0007A5C4768D740C760F0BD00000838024009
:100600000024F40040787D011400002070477047FA
:1006100070B5044620211348FFF780FE0120FFF744
:1006200001FE00251AE004F0800020B910210D48D9
:10063000FFF772FE03E010210A48FFF76FFE20214A
:100640000848FFF769FE0120FFF7ECFD202105486F
:10065000FFF764FE6006040E681CC5B2082DE2DBDD
:1006600070BD0000001002400CB500200190009009
:100670003448006840F480303249086000BF314897
:10068000006800F4003000900198401C0190009830
:1006900018B90198B0F5A04FF1D12A48006800F4CC
:1006A000003010B10120009001E00020009000987F
:1006B000012846D123484030006840F0805021494D
:1006C000403108602048006840F440401E490860FE
:1006D0001C48083000681B4908310860084600685B
:1006E00040F4004008600846006840F4A0500860EC
:1006F0001648091F0860081F006840F08070091F35
:10070000086000BF0F48006800F000700028F9D0B2
:1007100040F205700E4908600A480830006820F071
:1007200003000849083108600846006840F00200EC
:10073000086000BF03480830006800F00C0008287B
:10074000F8D10CBD00380240007000401954400739
:10075000003C0240042808D14FF0E021096941F033
:1007600004014FF0E022116107E04FF0E021096938
:1007700021F004014FF0E0221161704710B51248DA
:100780000068401C1049086010480068401C0F4970
:10079000086000F05FFB38B100F050FB0A490968BF
:1007A000884201D800F060FB09480068401E0849F3
:1007B000086038B907480068401C06490860642092
:1007C0000349086010BD0000240000203000002014
:1007D0002C0000202800002010B51548006840F4C7
:1007E0007000134908601348006840F00100114987
:1007F000086000200F49083108600E4800680E4963
:1008000008400C4908600D48091D0860081F006871
:1008100020F48020091F0860002006490C31086080
:10082000FFF722FF4FF0006001498039086010BDDA
:1008300088ED00E000380240FFFFF6FE1030002493
:1008400021B1828942F40052828104E082894DF60E
:10085000FF731A408281704702460020B1F5007F85
:1008600000D100BF13880B400BB1012000E0002035
:100870007047F0B50346002400260025002040F60E
:100880006A17B94200D100BF1846C1F3421401F003
:100890001F06012707FA06F5012C01D10C3004E0F0
:1008A000022C01D1103000E014301AB107682F4338
:1008B000076002E00768AF430760F0BD2DE9FF471E
:1008C00005460E460024A14600BFA046B08900B1EF
:1008D00000BF2C8A24F44054F08804432C82AC8955
:1008E00041F20C608443B088318908437189084320
:1008F0000443AC81AC8A24F44074B0890443AC82D4
:100900006846FFF70FFE2048854202D01F48854207
:1009100002D1DDF80C9001E0DDF80890A88900F420
:10092000004040B109EBC90000EB091031684900F3
:10093000B0FBF1F707E009EBC90000EB09103168E3
:100940008900B0FBF1F76420B7FBF0F00401200947
:10095000642101FB1078A88900F4004040B13220E6
:1009600000EBC800B0FBF1F000F00700044308E022
:10097000322000EB08106421B0FBF1F000F00F0012
:1009800004432C81BDE8FF870010014000140140A2
:10099000C1F308028280704700BFFEE710B504462D
:1009A0004FF480510848FFF7B7FC4FF40051064858
:1009B000FFF7B2FC2046FFF72BFE4FF480510248B0
:1009C000FFF7ACFC10BD0000000C024010B504465F
:1009D0004FF480510848FFF79FFC4FF40051064840
:1009E000FFF79CFC2046FFF713FE4FF480510248AE
:1009F000FFF794FC10BD0000000C02400FB4054B43
:100A000010B503A9044A029800F018F810BC5DF86C
:100A100014FB0000310F0008A400002002E008C809
:100A2000121F08C1002AFAD170477047002001E068
:100A300001C1121F002AFBD1704700002DE9FF4FB2
:100A40008BB09A460F460546002606E025280BD0B7
:100A500052460D9990476D1C761C28780028F5D1D8
:100A60000FB03046BDE8F08F0024A0460122604957
:100A700000E0044315F8013F203B02FA03F008426E
:100A8000F7D128782E2817D115F8010F44F0040467
:100A90002A280ED06FF02F022878A0F13001092902
:100AA0000AD808EB880102EB410100EB01086D1C3C
:100AB000F2E757F8048B6D1C287869283ED006DCD5
:100AC0000028CDD063280BD0642804D136E07328E9
:100AD00010D075284BD052460D999047761C85E072
:100AE00017F8040B8DF8000000208DF80100E9468E
:100AF000012003E057F8049B4FF0FF3061074FF0EF
:100B0000000401D40AE0641C44450DDA8442FADB97
:100B100019F804100029F6D106E0641C8442FCDBBD
:100B200019F804100029F8D1264404E019F8010B43
:100B300052460D999047641EF8D257E001CF4FF00E
:100B40000A0B002802DA40422D2102E0210504D5DB
:100B50002B218DF82410012103E0E10705D020218D
:100B6000F7E70DF1200908910CE00021F9E701CF2A
:100B70004FF00A0BF9E75946FFF722FB01F130026B
:100B800009F8012D0028F6D1ADEB090000F1200B8A
:100B9000600701D44FF00108D84502DDA8EB0B0037
:100BA00000E000208046002406E009A85246005DCF
:100BB0000D999047641C761C08988442F5DB04E08C
:100BC000302052460D999047761CB8F10001A8F1EB
:100BD0000108F5DC05E019F8010B52460D99904724
:100BE000761CBBF10001ABF1010BF4DC6D1C34E7AA
:100BF0000928010070B5044600F036F9E06868B1D4
:100C00000C48056808E0A54205D10B480068E06083
:100C100000F0B6FC70BDAD68002DF4D10648006848
:100C2000E06004480068A0600248046000F0A8FC8E
:100C300000BFEFE76C0000208800002070B504467C
:100C4000002505E054F82500002100F061FA6D1C34
:100C500054F825000028F5D170BD00002DE9F041C1
:100C600004460E461746A07B00F00100C8B1A068FC
:100C7000B8B10D4804600220A0733A46314604F131
:100C80000C00A36898470546022D03D0032D01D020
:100C9000832E04D12146204600F0FAF801E001201D
:100CA000A073BDE8F08100008800002010B5144852
:100CB0000068C0086421B0FBF1F4601EB0F1807FD1
:100CC00001D301200FE0601E4FF0E02148610F21A9
:100CD0004FF0FF30FFF7F0FB00204FF0E02188617C
:100CE00007200861002008B100BFFEE76FF0040094
:100CF000FFF730FD0621C81FFFF7DEFB10BD000027
:100D00000000002001480068704700002400002017
:100D100010B53048007800285BDD2F48007800EBE4
:100D200040002E4911F820002D4908702A4800780B
:100D300000EB4000294901EB800040682949086028
:100D40002548007800EB4000244901EB80008068D2
:100D50002549086020490978481CC11700EBD1617A
:100D60004911A0EB41111C4A11701A480078401E2D
:100D7000184908701C480068D8B91C4800681C490C
:100D8000086011E01B48007808B100F035F81548FC
:100D900002681348017816480068FFF75FFF14489F
:100DA0000068006812490860114800680028E9D10D
:100DB0000FE00B480078812803D101200A49096817
:100DC0008873084802680648017807480068FFF7FA
:100DD00045FF10BD8D0000208E000020C8000020BF
:100DE0009000002094000020980000208400002043
:100DF0009C0000208F00002010B5002009490870D9
:100E0000094804680BE0E07B40B10120A07300209A
:100E1000E073002282212046FFF720FF2468002C87
:100E2000F1D110BD8F000020840000200146C86869
:100E300008B9012070470020FCE7000000B500F071
:100E400009F810B10248006800BD0020FCE700006E
:100E5000700000200348006808B10120704700209E
:100E6000FCE700006C00002010B5024800F0E4F838
:100E700010BD00007400002070B504460D462946E0
:100E8000204600F00DFB2046FFF7B4FE70BD0000C9
:100E90002DE9F04104460E462348076823480568BB
:100EA00000E02D68A54201D0002DFAD10DB9BDE8B2
:100EB000F081204600F0B8F8D0B10020A0731B48A4
:100EC000056807E0AC4204D0224687212846FFF798
:100ED000C5FE2D68002DF5D1A06848B1B44207D0F9
:100EE000114804600022832104F10C00A368984794
:100EF0000E480068844205D10C48006800680B4920
:100F000008600CE00948056806E02868A04202D1A4
:100F10002068286002E02D68002DF6D100BF02484D
:100F2000076000BFC3E700008800002084000020A5
:100F300070B504460D46E1B20548FFF729FD00BF34
:100F400040210348FFF788FC0028F9D0204670BDF7
:100F500000480040FFF75CF912A0FFF74FFD16496B
:100F600016A0FFF74BFDFFF7A1FE00F045F80021AA
:100F7000184800F0CDF80021174800F0C9F81748CC
:100F8000FFF75CFE16A0FFF739FD09E000BF00F097
:100F9000ADF80028FBDC17480068401C15490860C4
:100FA000F4E700000D0A496E697469616C69736940
:100FB0006E670D0A00000000340000200D0A436F28
:100FC0006D70696C652074696D652069733A25736D
:100FD00000000000740000205C000020D015000814
:100FE00050726F6365737365732072756E6E696E90
:100FF000670D0A00480000208A200649087000207A
:1010000005490870054908700549086005490860E8
:10101000704700008C0000208E0000208D00002012
:1010200084000020880000200146887B08B1012050
:1010300070470020FCE7000048B1817B012902D005
:10104000817B022903D10121C173014A11707047CC
:101050008F00002030B5034617480078202801D1C2
:10106000012030BD154C2478134D2D782C44E0B26E
:10107000C41700EBD4646411A0EB4414104D2C7021
:101080002846007800EB40000E4C04F8201028465B
:10109000007800EB400004EB8000426028460078B6
:1010A00000EB400004EB8000836003480078401CA4
:1010B000014C20700020D4E78D0000208E0000201D
:1010C000A0000020C80000202DE9F04104460D4694
:1010D000164605480768324629462046FFF7BEFDFA
:1010E00001480760BDE8F0818800002010B506487F
:1010F000007808B1FFF780FEFFF70AFE034800788A
:1011000001490978084410BD8F0000208D0000209F
:1011100070B504460E460D48056800E02D68A542EE
:1011200001D0002DFAD1A54200D170BD074800685A
:101130002060064804600120A0730020A081324690
:1011400081212046FFF7C0FF00BFEEE784000020AA
:101150002DE9F04104460E4617460125208829282E
:101160005DD007DC78B120281CD023282FD026287A
:1011700070D140E02D2866D030287BD033286BD04A
:101180003628F5D19EE0A8E05748016857A0FFF740
:1011900035FC64215948FFF76FFE00BF0025202071
:1011A000208000BF1DB15548FFF740FE10B9012057
:1011B000BDE8F08100BF0020FFF710F964214F481F
:1011C000FFF75AFE00BF00252320208000BF1DB17D
:1011D0004A48FFF72BFE08B90120E9E700BF0120CC
:1011E000FFF7FCF864214548FFF746FE00BF0025E5
:1011F0002620208000BF1DB14048FFF717FE08B928
:101200000120D5E700BF0220FFF7E8F864213B4842
:10121000FFF732FE00BF00252920208000BF1DB14E
:101220003648FFF703FE08B90120C1E700BF0320DD
:10123000FFF7D4F864213148FFF71EFE00BF0025F8
:101240002D20208000BF1DB12C48FFF7EFFD20B9F5
:101250000120ADE742E00DE020E000BF0020FFF7F5
:1012600099F864212548FFF707FE00BF00253020CC
:10127000208000BF1DB12148FFF7D8FD08B901202B
:1012800096E700BF0120FFF785F864211B48FFF7B0
:10129000F3FD00BF00253320208000BF1DB117489B
:1012A000FFF7C4FD08B9012082E700BF0220FFF765
:1012B00071F864211148FFF7DFFD00BF00253620DB
:1012C000208000BF1DB10D48FFF7B0FD08B9012017
:1012D0006EE700BF0320FFF75DF855E700BF00256C
:1012E00000202080032063E7300000200D0A206CDE
:1012F00065642074696D652025640000A8000020E5
:101300002DE9F04705460E4690464FF00109288822
:1013100010B159285DD109E000203149086057E03B
:1013200000BF4FF000095920288000BFB9F1000F1D
:1013300002D10120BDE8F08700BF872E21D14046B1
:1013400004E0274909688968254A11602449096829
:1013500021B123490968C9688142F2D0204909684E
:1013600071B11F490C6808E0A168C968814203D1C6
:10137000A1688968A16000E0A468A1680029F3D190
:1013800026E0822E00D023E000BF00271448046826
:101390001BE0204600F076F8A8B122468821E068DC
:1013A000FFF758FE68B90020E06017B1A068B86088
:1013B00002E00B49A06808600020A06000F0E0F89F
:1013C000E3E7FFF751FD2746A468002CE1D100BFF9
:1013D000A6E700BF4FF00009002028800320A9E7FE
:1013E0006C0000202DE9F04104460E461746012509
:1013F000208820B14A2811D04D2830D123E02DE09B
:101400001A4801681AA0FFF7F9FAC8211C48FFF72B
:1014100033FD00BF00254A20208000BF1DB11848C1
:10142000FFF704FD10B90120BDE8F08100BF502096
:10143000FEF778FFC8211248FFF71EFD00BF002508
:101440004D20208000BF1DB10D48FFF7EFFC08B90B
:101450000120E9E700BF0A20FEF764FFD0E700BFE4
:101460000025002020800320DEE70000300000205F
:101470000D0A206C63642074696D6520256400008A
:10148000B800002070B50446FFF73CFC2168401A04
:10149000451C6068A84201D2012070BD0020FCE715
:1014A00070B504460D466560FFF72CFC206070BDEA
:1014B00000B587B001210420FFF714F8012188044A
:1014C000FFF720F807220A212B48FEF702FF072228
:1014D0000B212948FEF7FDFE02208DF804000320B1
:1014E0008DF8050000208DF8060001208DF807001A
:1014F0008002009069462048FEF7A3FE4FF400608A
:10150000009069461C48FEF79CFE4FF4E1300390C2
:101510004FF48050ADF810000020ADF812004FF4E9
:101520008060ADF814000020ADF818000C20ADF874
:10153000160003A91148FFF7C1F94FF4A060FEF7A8
:10154000B1FF27208DF8080000208DF809008DF8E4
:101550000A0001208DF80B0002A8FEF767FF0121A9
:101560000648FFF76DF9012240F225510348FFF7C5
:1015700080F907B000BD00000008024000480040AC
:1015800070B51149096819B90021104A116019E0B4
:10159000FFF7B8FB0C490C68D4E9001211440D1A8E
:1015A000A4680AE0D4E900121144091AA94203D23E
:1015B000D4E9001211440D1AA468002CF2D141198B
:1015C000024A116070BD00006C0000207000002015
:1015D0004C00002000000000426C696E6B000000AF
:1015E0004C63647265667572000000004576656E36
:1015F000742074696D6572001816000800000020E0
:10160000A80000001C0A0008C0160008A80000205E
:10161000A00500002C0A0008007A030A0000000060
:101620000000000001020304060708090000000092
:101630000102030401020304060708090000000078
:101640000000000064000000000000004D617920EF
:101650002038203230313631303A33303A323400AB
:101660000000000000000000D8150008511100081B
:101670000000000000000000E0150008E51300086D
:10168000000000000000000000000000000000005A
:10169000EC15000801130008000000000000000025
:1016A000000000000000000000000000000000003A
:1016B000000000000000000000000000000000002A
:040000050800018965
:00000001FF
