:020000040800F2
:10000000300600209D010008D10300080503000808
:10001000CD0300081D020008E908000800000000E8
:10002000000000000000000000000000B70500080C
:10003000230200080000000089040008CD06000823
:10004000B7010008B7010008B7010008B7010008B0
:10005000B7010008B7010008B7010008B7010008A0
:10006000B7010008B7010008B7010008B701000890
:10007000B7010008B7010008B7010008B701000880
:10008000B7010008B7010008B7010008B701000870
:10009000B7010008B7010008B7010008B701000860
:1000A000B7010008B7010008B7010008B701000850
:1000B000B7010008B7010008B7010008B701000840
:1000C000B7010008B7010008B7010008B701000830
:1000D000B7010008B7010008B7010008B701000820
:1000E00025020008B7010008B7010008B7010008A1
:1000F000B7010008B7010008B7010008B701000800
:10010000B7010008B5050008B7010008B7010008ED
:10011000B7010008B7010008B7010008B7010008DF
:10012000B7010008B7010008B70100082102000864
:10013000B7010008B7010008B7010008B7010008BF
:10014000B7010008B7010008B7010008B7010008AF
:10015000B7010008B7010008B7010008B70100089F
:10016000B7010008B7010008B7010008B70100088F
:10017000B7010008B7010008B7010008B70100087F
:10018000B7010008B7010008DFF80CD000F02EF826
:1001900000480047E10D000830060020064880476F
:1001A00006480047FEE7FEE7FEE7FEE7FEE7FEE75C
:1001B000FEE7FEE7FEE7FEE72907000889010008E1
:1001C00030B50B46014600202022012409E021FA27
:1001D00002F59D4205D303FA02F5491B04FA02F524
:1001E0002844151EA2F10102F1DC30BD064C074D7A
:1001F00006E0E06840F0010394E8070098471034F7
:10020000AC42F6D3FFF7C4FFBC130008DC130008B0
:1002100010B500F079F801F033F810BD00BFFEE72B
:10022000704770477047F0B50A460021002300244C
:1002300000BF3DE0012505FA01F3156805EA030456
:100240009C4234D105684F000326BE40B54305608B
:1002500015794E00B5400668354305601579012DC6
:1002600002D01579022D16D185684F000326BE40B5
:10027000B543856055794E00B54086683543856045
:10028000456801268E40B5434560456896798E40A5
:10029000B6B235434560C5684F000326BE40B5433E
:1002A000C560D5794E00B540C6683543C560491C68
:1002B0001029BFD3F0BDF0B5002300244D07ED0E8B
:1002C00002FA05F3CE1000F1200555F826504E072E
:1002D000F70E0F26BE40B543CF1000F1200646F8BA
:1002E0002750CE1000F1200555F8265045EA0304AA
:1002F000CE1000F1200545F82640F0BD418370473F
:100300000183704700BFFEE71CB50121102000F0FB
:10031000BDF80F20009001208DF8040000208DF81A
:10032000060003208DF8050000208DF807006946BF
:100330000148FFF778FF1CBD0010024010B50446CD
:1003400034B1012C09D0022C0CD0032C14D10EE0B6
:1003500001210B48FFF7D4FF0FE002210848FFF707
:10036000CFFF0AE004210648FFF7CAFF05E0082195
:100370000348FFF7C5FF00E000BF00BF10BD00004D
:100380000010024010B5044634B1012C09D0022CF3
:100390000CD0032C14D10EE001210B48FFF7AEFF67
:1003A0000FE002210848FFF7A9FF0AE004210648F0
:1003B000FFF7A4FF05E008210348FFF79FFF00E0D7
:1003C00000BF00BF10BD00000010024000BFFEE7EC
:1003D0007047000070B5002100230F22C4781CB3C1
:1003E000174C246804F4E064C4F5E064C4F3072106
:1003F000C1F10404E3B20A4144789C40E1B284783C
:10040000144021430C07210E0E4C057861550478E9
:1004100004F01F050124AC4005786D11AD0005F115
:10042000E025C5F8004109E0047804F01F05012427
:10043000AC40054D0678761145F8264070BD0000A9
:100440000CED00E000E400E080E100E0024901433F
:10045000024A1160704700000000FA050CED00E050
:1004600010B5002807DA0A07140E054A00F00F033A
:100470001B1FD45403E00A07130E024A135410BD85
:1004800018ED00E000E400E07047000029B1064AE2
:1004900012680243044B1A6004E0034A1268824364
:1004A000014B1A60704700003038024029B1064AFB
:1004B00012680243044B1A6004E0034A1268824344
:1004C000014B1A607047000040380240F0B500212F
:1004D00000220024022500260223324F3F6807F045
:1004E0000C0121B1042905D0082937D105E02E4F90
:1004F000076036E02D4F076033E02A4F3F1F3F680B
:10050000C7F38056274F3F1F3F6807F03F036EB188
:10051000264FB7FBF3F7DFF88CC0ACF1040CDCF826
:1005200000C0CCF3881C07FB0CF40CE01E4FB7FB9B
:10053000F3F7DFF870C0ACF1040CDCF800C0CCF3CA
:10054000881C07FB0CF4174F3F1F3F68C7F3014798
:100550007F1C7D00B4FBF5F7076002E0124F0760D7
:1005600000BF00BF0F4F3F6807F0F0010909104FAF
:100570007A5C0768D74047600A4F3F6807F4E0514C
:10058000890A0B4F7A5C4768D7408760054F3F6800
:1005900007F46041490B064F7A5C4768D740C76053
:1005A000F0BD0000083802400024F40040787D01CE
:1005B00014000020704770470CB500200190009097
:1005C0003448006840F480303249086000BF314848
:1005D000006800F4003000900198401C01900098E1
:1005E00018B90198B0F5A04FF1D12A48006800F47D
:1005F000003010B10120009001E000200090009830
:10060000012846D123484030006840F080502149FD
:10061000403108602048006840F440401E490860AE
:100620001C48083000681B4908310860084600680B
:1006300040F4004008600846006840F4A05008609C
:100640001648091F0860081F006840F08070091FE5
:10065000086000BF0F48006800F000700028F9D063
:1006600040F205700E4908600A480830006820F022
:1006700003000849083108600846006840F002009D
:10068000086000BF03480830006800F00C0008282C
:10069000F8D10CBD003802400070004019544007EA
:1006A000003C0240042808D14FF0E021096941F0E4
:1006B00004014FF0E022116107E04FF0E0210969E9
:1006C00021F004014FF0E0221161704710B512488B
:1006D0000068401C1049086010480068401C0F4921
:1006E000086000F0FDFA38B100F0EEFA0A49096836
:1006F000884201D800F0FEFA09480068401E084907
:10070000086038B907480068401C06490860642042
:100710000349086010BD00002400002030000020C4
:100720002C0000202800002010B51548006840F477
:100730007000134908601348006840F00100114937
:10074000086000200F49083108600E4800680E4913
:1007500008400C4908600D48091D0860081F006822
:1007600020F48020091F0860002006490C31086031
:10077000FFF722FF4FF0006001498039086010BD8B
:1007800088ED00E000380240FFFFF6FE1030002444
:1007900021B1828942F40052828104E082894DF6BF
:1007A000FF731A408281704702460020B1F5007F36
:1007B00000D100BF13880B400BB1012000E00020E6
:1007C0007047F0B50346002400260025002040F6BF
:1007D0006A17B94200D100BF1846C1F3421401F0B4
:1007E0001F06012707FA06F5012C01D10C3004E0A1
:1007F000022C01D1103000E014301AB107682F43E9
:10080000076002E00768AF430760F0BD2DE9FF47CE
:1008100005460E460024A14600BFA046B08900B19F
:1008200000BF2C8A24F44054F08804432C82AC8905
:1008300041F20C608443B0883189084371890843D0
:100840000443AC81AC8A24F44074B0890443AC8284
:100850006846FFF73BFE2048854202D01F4885428C
:1008600002D1DDF80C9001E0DDF80890A88900F4D1
:10087000004040B109EBC90000EB091031684900A4
:10088000B0FBF1F707E009EBC90000EB0910316894
:100890008900B0FBF1F76420B7FBF0F004012009F8
:1008A000642101FB1078A88900F4004040B1322097
:1008B00000EBC800B0FBF1F000F00700044308E0D3
:1008C000322000EB08106421B0FBF1F000F00F00C3
:1008D00004432C81BDE8FF87001001400014014053
:1008E000C1F308028280704700BFFEE70FB4054BDA
:1008F00010B503A9044A029800F018F810BC5DF87E
:1009000014FB0000BD0D00089800002002E008C89C
:10091000121F08C1002AFAD170477047002001E079
:1009200001C1121F002AFBD1704700002DE9FF4FC3
:1009300089B09B460446002506E025280BD05A4680
:100940000B999047641C6D1C20780028F5D10DB0E0
:100950002846BDE8F08F0027B8460122474900E04D
:10096000074314F8013F203B02FA03F00842F7D195
:1009700020782E2819D114F8010F47F004072A28EF
:100980000ED06FF02F022078A0F1300109290CD889
:1009900008EB880102EB410100EB0108641CF2E75F
:1009A0000A98641C50F8048B0A9020780028CED056
:1009B000642808D0692806D075281ED05A460B999D
:1009C00090476D1C58E00A994FF00A0901C90A9135
:1009D000002802DA40422D2102E0390504D52B21FE
:1009E0008DF82010012103E0F90704D02021F7E75A
:1009F0008A4608AE0DE00021FAE70A994FF00A098D
:100A000001C90A91F7E74946FFF7DAFB303106F8EA
:100A1000011D0028F7D1ADEB060000F12009780791
:100A200001D44FF00108C84502DDA8EB090000E041
:100A300000208046002706E008A85A46C05D0B99B2
:100A400090476D1C7F1C5745F6DB04E030205A466A
:100A50000B9990476D1CB8F10001A8F10108F5DC75
:100A600005E016F8010B5A460B9990476D1CB9F139
:100A70000001A9F10109F4DC641C65E70928010003
:100A800070B5044600F036F9E06868B10C480568B6
:100A900008E0A54205D10B480068E06000F058FC72
:100AA00070BDAD68002DF4D106480068E0600448D0
:100AB0000068A0600248046000F04AFC00BFEFE755
:100AC000600000207C00002070B50446002505E091
:100AD00054F82500002100F049FA6D1C54F8250057
:100AE0000028F5D170BD00002DE9F04104460E4606
:100AF0001746A07B00F00100C8B1A068B8B10D484E
:100B000004600220A0733A46314604F10C00A36849
:100B100098470546022D03D0032D01D0832E04D122
:100B20002146204600F0FAF801E00120A073BDE85C
:100B3000F08100007C00002010B5144800684FF4DC
:100B40007A71B0FBF1F4601EB0F1807F01D3012017
:100B50000FE0601E4FF0E02148610F214FF0FF30A1
:100B6000FFF77EFC00204FF0E0218861072008613C
:100B7000002008B100BFFEE76FF00400FFF792FD10
:100B80000621C81FFFF76CFC10BD0000000000200C
:100B900001480068704700002400002010B530486C
:100BA000007800285BDD2F48007800EB40002E49DC
:100BB00011F820002D4908702A48007800EB400009
:100BC000294901EB800040682949086025480078E0
:100BD00000EB4000244901EB800080682549086053
:100BE00020490978481CC11700EBD1614911A0EBDD
:100BF00041111C4A11701A480078401E18490870AB
:100C00001C480068D8B91C4800681C49086011E0FD
:100C10001B48007808B100F035F815480268134801
:100C2000017816480068FFF75FFF14480068006805
:100C300012490860114800680028E9D10FE00B480C
:100C40000078812803D101200A490968887308487F
:100C500002680648017807480068FFF745FF10BDA5
:100C60008100002082000020AC00002084000020D1
:100C7000880000208C0000207800002090000020D8
:100C80008300002010B50020094908700948046855
:100C90000BE0E07B40B10120A0730020E073002254
:100CA00082212046FFF720FF2468002CF1D110BDDF
:100CB00083000020780000200146C86808B90120A0
:100CC00070470020FCE7000000B500F009F810B103
:100CD0000248006800BD0020FCE70000640000201E
:100CE0000348006808B1012070470020FCE70000BD
:100CF0006000002010B5024800F0CCF810BD0000E4
:100D00006800002070B504460D462946204600F0D4
:100D1000AFFA2046FFF7B4FE70BD00002DE9F041A8
:100D200004460E46234807682348056800E02D68FE
:100D3000A54201D0002DFAD10DB9BDE8F0812046C1
:100D400000F0A0F8D0B10020A0731B48056807E0B0
:100D5000AC4204D0224687212846FFF7C5FE2D6805
:100D6000002DF5D1A06848B1B44207D01148046005
:100D70000022832104F10C00A36898470E48006804
:100D8000844205D10C48006800680B4908600CE0FB
:100D90000948056806E02868A04202D1206828605A
:100DA00002E02D68002DF6D100BF0248076000BFA9
:100DB000C3E700007C0000207800002070B50446E6
:100DC0000D46E1B20548FFF78BFD00BF4021034807
:100DD000FFF7EAFC0028F9D0204670BD004800402B
:100DE000FFF716FA0EA0FFF781FDFFF7A5FE00F052
:100DF00031F800210F4800F0B9F80F48FFF764FE02
:100E00000EA0FFF773FD09E000BF00F09DF8002879
:100E1000FBDC0F480068401C0D490860F4E7000047
:100E20000D0A496E697469616C6973696E670D0AB0
:100E30000000000068000020A013000850726F63DB
:100E400065737365732072756E6E696E670D0A0047
:100E5000480000208A2006490870002005490870D3
:100E60000549087005490860054908607047000099
:100E700080000020820000208100002078000020F7
:100E80007C0000200146887B08B1012070470020CB
:100E9000FCE7000048B1817B012902D0817B022957
:100EA00003D10121C173014A1170704783000020F2
:100EB00030B5034617480078202801D1012030BD05
:100EC000154C2478134D2D782C44E0B2C41700EB58
:100ED000D4646411A0EB4414104D2C7028460078A3
:100EE00000EB40000E4C04F820102846007800EB80
:100EF000400004EB800042602846007800EB400090
:100F000004EB8000836003480078401C014C207093
:100F10000020D4E7810000208200002094000020FF
:100F2000AC0000202DE9F04104460D461646054868
:100F30000768324629462046FFF7D6FD014807607C
:100F4000BDE8F0817C00002010B50648007808B1AB
:100F5000FFF798FEFFF722FE034800780149097861
:100F6000084410BD830000208100002070B50446B5
:100F70000E460D48056800E02D68A54201D0002D01
:100F8000FAD1A54200D170BD07480068206006482C
:100F900004600120A0730020A081324681212046F8
:100FA000FFF7C0FF00BFEEE7780000202DE9F04119
:100FB00004460E461746012520882C285DD007DC04
:100FC00078B123281CD026282FD0292870D140E0C2
:100FD000302866D033287BD036286BD03928F5D11D
:100FE0009EE0ADE05A4801685AA0FFF77FFC6421FB
:100FF0005B48FFF787FE00BF00252320208000BF4D
:101000001DB15748FFF758FE10B90120BDE8F08127
:1010100000BF0020FFF7B6F964215148FFF772FEC8
:1010200000BF00252620208000BF1DB14C48FFF7DF
:1010300043FE08B90120E9E700BF0120FFF7A2F94C
:1010400064214748FFF75EFE00BF0025292020806D
:1010500000BF1DB14248FFF72FFE08B90120D5E7B8
:1010600000BF0220FFF78EF964213D48FFF74AFEDA
:1010700000BF00252C20208000BF1DB13848FFF79D
:101080001BFE08B90120C1E700BF0320FFF77AF972
:1010900064213348FFF736FE00BF00253020208052
:1010A00000BF1DB12E48FFF707FE20B90120ADE7B4
:1010B00047E00DE020E000BF0020FFF73FF964218A
:1010C0002748FFF71FFE00BF00253320208000BF08
:1010D0001DB12348FFF7F0FD08B9012096E700BFD6
:1010E0000120FFF72BF964211D48FFF70BFE00BF1D
:1010F00000253620208000BF1DB11948FFF7DCFD18
:1011000008B9012082E700BF0220FFF717F9642128
:101110001348FFF7F7FD00BF00253920208000BFEE
:101120001DB10F48FFF7C8FD08B901206EE700BFE9
:101130000320FFF703F9064801680AA0FFF7D6FB72
:1011400050E700BF00250020208003205EE700005C
:10115000300000200D0A203174696D65202564007F
:101160009C0000200D0A203274696D652025640002
:101170002DE9F04705460E4690464FF001092888B4
:1011800010B159285DD109E000203149086057E0CD
:1011900000BF4FF000095920288000BFB9F1000FAF
:1011A00002D10120BDE8F08700BF872E21D1404643
:1011B00004E0274909688968254A116024490968BB
:1011C00021B123490968C9688142F2D020490968E0
:1011D00071B11F490C6808E0A168C968814203D158
:1011E000A1688968A16000E0A468A1680029F3D122
:1011F00026E0822E00D023E000BF002714480468B8
:101200001BE0204600F026F8A8B122468821E068BD
:10121000FFF74EFE68B90020E06017B1A068B86023
:1012200002E00B49A06808600020A06000F090F880
:10123000E3E7FFF75FFD2746A468002CE1D100BF7C
:10124000A6E700BF4FF00009002028800320A9E78F
:101250006000002070B50446FFF79AFC2168401A30
:10126000451C6068A84201D2012070BD0020FCE747
:1012700070B504460D466560FFF78AFC206070BDBE
:1012800000B587B001210420FFF700F9012188048F
:10129000FFF70CF907220A212B48FFF70CF8072269
:1012A0000B212948FFF707F802208DF804000320DE
:1012B0008DF8050000208DF8060001208DF807004C
:1012C0008002009069462048FEF7ADFF4FF40060B1
:1012D000009069461C48FEF7A6FF4FF4E1300390EA
:1012E0004FF48050ADF810000020ADF812004FF41C
:1012F0008060ADF814000020ADF818000C20ADF8A7
:10130000160003A91148FFF781FA4FF4A060FFF718
:101310009DF827208DF8080000208DF809008DF831
:101320000A0001208DF80B0002A8FFF753F80121F5
:101330000648FFF72DFA012240F225510348FFF736
:1013400040FA07B000BD000000080240004800401D
:1013500070B51149096819B90021104A116019E0E6
:10136000FFF716FC0C490C68D4E9001211440D1A61
:10137000A4680AE0D4E900121144091AA94203D270
:10138000D4E9001211440D1AA468002CF2D14119BD
:10139000024A116070BD000060000020640000205F
:1013A0005000002000000000426C696E6B000000DD
:1013B0004576656E742074696D657200DC130008F3
:1013C000000000209C0000000C09000878140008B0
:1013D0009C000020940500001C090008007A030A04
:1013E00000000000000000000102030406070809D5
:1013F00000000000010203040102030406070809BB
:101400000000000000000000640000000000000078
:10141000417072203135203230313630393A353230
:101420003A32300000000000000000000000000020
:10143000A8130008AD0F0008000000000000000025
:101440000000000000000000B01300087111000847
:10145000000000000000000000000000000000008C
:10146000000000000000000000000000000000007C
:08147000000000000000000074
:040000050800018965
:00000001FF
