:020000040800F2
:10000000480F00209D010008810500087B030008BF
:100010007D05000877020008F10A000800000000D2
:10002000000000000000000000000000670700085A
:100030007D0200080000000039060008D50800080D
:10004000B7010008B7010008B7010008B7010008B0
:10005000B7010008B7010008B7010008B7010008A0
:10006000B7010008B7010008B7010008B701000890
:10007000B7010008B7010008B7010008B701000880
:10008000B7010008B7010008B7010008B701000870
:10009000B7010008B7010008B7010008B701000860
:1000A000B7010008B7010008B7010008B701000850
:1000B000B7010008B7010008B7010008B701000840
:1000C000B7010008B7010008B7010008B701000830
:1000D000B7010008B7010008B7010008B701000820
:1000E0009B020008B7010008B7010008B70100082B
:1000F000B7010008B7010008B7010008B701000800
:10010000B701000865070008B7010008B70100083B
:10011000B7010008B7010008B7010008B7010008DF
:10012000B7010008B7010008B70100087B0200080A
:10013000B7010008B7010008B7010008B7010008BF
:10014000B7010008B7010008B7010008B7010008AF
:10015000B7010008B7010008B7010008B70100089F
:10016000B7010008B7010008B7010008B70100088F
:10017000B7010008B7010008B7010008B70100087F
:10018000B7010008B7010008DFF80CD000F02EF826
:100190000048004761110008480F002006488047CA
:1001A00006480047FEE7FEE7FEE7FEE7FEE7FEE75C
:1001B000FEE7FEE7FEE7FEE73109000889010008D7
:1001C00030B50B46014600202022012409E021FA27
:1001D00002F59D4205D303FA02F5491B04FA02F524
:1001E0002844151EA2F10102F1DC30BD064C074D7A
:1001F00006E0E06840F0010394E8070098471034F7
:10020000AC42F6D3FFF7C4FF0C1800082C18000806
:1002100070B58C1810F8015B15F0070301D110F8C8
:10022000013B2A1106D110F8012B03E010F8016BF5
:1002300001F8016B5B1EF9D12B0705D40023521E78
:100240000DD401F8013BFAE710F8013BCB1A921CE0
:1002500003E013F8015B01F8015B521EF9D5A142DE
:10026000D8D3002070BD10B500F026F901F02AFAAD
:1002700000F086F810BD00BFFEE7704770470146EA
:1002800005E0002001E0421C90B20F28FBDB0A1EB3
:10029000A1F1010399B2F4D170477047F0B50A4655
:1002A00000210023002400BF3DE0012505FA01F3F1
:1002B000156805EA03049C4234D105684F00032603
:1002C000BE40B543056015794E00B540066835431C
:1002D00005601579012D02D01579022D16D185689A
:1002E0004F000326BE40B543856055794E00B540AA
:1002F000866835438560456801268E40B543456074
:10030000456896798E40B6B235434560C5684F0062
:100310000326BE40B543C560D5794E00B540C668DA
:100320003543C560491C1029BFD3F0BDF0B500238B
:1003300000244D07ED0E02FA05F3CE1000F1200562
:1003400055F826504E07F70E0F26BE40B543CF1086
:1003500000F1200646F82750CE1000F1200555F890
:10036000265045EA0304CE1000F1200545F826404A
:10037000F0BD418370470183704700BFFEE7000076
:1003800010B500F03BF840211B48FFF7F2FFFA20C0
:10039000FFF775FF40211848FFF7EDFFE22000F05E
:1003A000E5FBFA20FFF76BFFAE2000F0DFFBA0209B
:1003B00000F0DCFB402000F0D9FBC22000F0D6FBAF
:1003C000882000F0D3FBA62000F0D0FBA42000F092
:1003D000CDFBA12000F0CAFB2F2000F0C7FB262098
:1003E00000F0C4FB812000F0C1FBC02000F0BEFB88
:1003F000AF2000F0BBFB10BD001002401CB5012176
:10040000082000F01BF90121102000F017F94FF42B
:100410004050009001208DF8040000208DF8060067
:1004200003208DF8050000208DF8070069460B4871
:10043000FFF734FF7020009001208DF804000020A9
:100440008DF8060003208DF8050000208DF80700C8
:1004500069460348FFF722FF1CBD0000000C024064
:100460000010024010B5AF2000F080FB10BD00006E
:1004700070B5FFF7F7FF002418E004F1B001C8B22F
:1004800000F074FB102000F071FB042000F06EFB04
:10049000002507E0074901EBC411485D00F07EFB31
:1004A000681CC5B2802DF5DB601CC4B2082CE4DBEF
:1004B00070BD0000A40500201CB50121102000F033
:1004C000BDF80F20009001208DF8040000208DF869
:1004D000060003208DF8050000208DF8070069460E
:1004E0000148FFF7DBFE1CBD0010024010B50446BA
:1004F00034B1012C09D0022C0CD0032C14D10EE005
:1005000001210B48FFF737FF0FE002210848FFF7F2
:1005100032FF0AE004210648FFF72DFF05E008211D
:100520000348FFF728FF00E000BF00BF10BD000038
:100530000010024010B5044634B1012C09D0022C41
:100540000CD0032C14D10EE001210B48FFF711FF52
:100550000FE002210848FFF70CFF0AE004210648DB
:10056000FFF707FF05E008210348FFF702FF00E05F
:1005700000BF00BF10BD00000010024000BFFEE73A
:100580007047000070B5002100230F22C4781CB30F
:10059000174C246804F4E064C4F5E064C4F3072154
:1005A000C1F10404E3B20A4144789C40E1B284788A
:1005B000144021430C07210E0E4C05786155047838
:1005C00004F01F050124AC4005786D11AD0005F164
:1005D000E025C5F8004109E0047804F01F05012476
:1005E000AC40054D0678761145F8264070BD0000F8
:1005F0000CED00E000E400E080E100E0024901438E
:10060000024A1160704700000000FA050CED00E09E
:1006100010B5002807DA0A07140E054A00F00F0388
:100620001B1FD45403E00A07130E024A135410BDD3
:1006300018ED00E000E400E07047000029B1064A30
:1006400012680243044B1A6004E0034A12688243B2
:10065000014B1A60704700003038024029B1064A49
:1006600012680243044B1A6004E0034A1268824392
:10067000014B1A607047000040380240F0B500217D
:1006800000220024022500260223324F3F6807F093
:100690000C0121B1042905D0082937D105E02E4FDE
:1006A000076036E02D4F076033E02A4F3F1F3F6859
:1006B000C7F38056274F3F1F3F6807F03F036EB1D7
:1006C000264FB7FBF3F7DFF88CC0ACF1040CDCF875
:1006D00000C0CCF3881C07FB0CF40CE01E4FB7FBEA
:1006E000F3F7DFF870C0ACF1040CDCF800C0CCF319
:1006F000881C07FB0CF4174F3F1F3F68C7F30147E7
:100700007F1C7D00B4FBF5F7076002E0124F076025
:1007100000BF00BF0F4F3F6807F0F0010909104FFD
:100720007A5C0768D74047600A4F3F6807F4E0519A
:10073000890A0B4F7A5C4768D7408760054F3F684E
:1007400007F46041490B064F7A5C4768D740C760A1
:10075000F0BD0000083802400024F40040787D011C
:10076000140000207047704770B5044620211348DC
:10077000FFF701FE0120FFF782FD00251AE004F0DB
:10078000800020B910210D48FFF7F3FD03E0102190
:100790000A48FFF7F0FD20210848FFF7EAFD012095
:1007A000FFF76DFD20210548FFF7E5FD6006040E0B
:1007B000681CC5B2082DE2DB70BD000000100240CD
:1007C0000CB50020019000903448006840F480305F
:1007D0003249086000BF3148006800F400300090E2
:1007E0000198401C0190009818B90198B0F5A04FED
:1007F000F1D12A48006800F4003010B101200090C7
:1008000001E0002000900098012846D123484030A4
:10081000006840F08050214940310860204800685D
:1008200040F440401E4908601C48083000681B49DD
:10083000083108600846006840F400400860084637
:10084000006840F4A05008601648091F0860081F9F
:10085000006840F08070091F086000BF0F48006802
:1008600000F000700028F9D040F205700E490860D1
:100870000A480830006820F0030008490831086081
:100880000846006840F00200086000BF03480830D6
:10089000006800F00C000828F8D10CBD00380240B8
:1008A0000070004019544007003C0240042808D161
:1008B0004FF0E021096941F004014FF0E02211619D
:1008C00007E04FF0E021096921F004014FF0E02238
:1008D0001161704710B512480068401C104908604B
:1008E00010480068401C0F49086000F0B9FB38B19F
:1008F00000F0AAFB0A490968884201D800F0BAFB57
:1009000009480068401E0849086038B9074800686F
:10091000401C0649086064200349086010BD0000BF
:10092000200500202C05002028050020240500209B
:1009300010B51548006840F470001349086013486A
:10094000006840F001001149086000200F4908319B
:1009500008600E4800680E4908400C4908600D48C0
:10096000091D0860081F006820F48020091F086026
:10097000002006490C310860FFF722FF4FF00060AD
:1009800001498039086010BD88ED00E00038024060
:10099000FFFFF6FE1030002421B1828942F400529C
:1009A000828104E082894DF6FF731A40828170478C
:1009B00002460020B1F5007F00D100BF13880B4034
:1009C0000BB1012000E000207047F0B50346002481
:1009D00000260025002040F66A17B94200D100BF6A
:1009E0001846C1F3421401F01F06012707FA06F565
:1009F000012C01D10C3004E0022C01D1103000E0B8
:100A000014301AB107682F43076002E00768AF434C
:100A10000760F0BD2DE9FF4705460E460024A146BC
:100A200000BFA046B08900B100BF2C8A24F4405416
:100A3000F08804432C82AC8941F20C608443B08876
:100A400031890843718908430443AC81AC8A24F49A
:100A50004074B0890443AC826846FFF70FFE20481B
:100A6000854202D01F48854202D1DDF80C9001E09A
:100A7000DDF80890A88900F4004040B109EBC900F6
:100A800000EB091031684900B0FBF1F707E009EB12
:100A9000C90000EB091031688900B0FBF1F7642050
:100AA000B7FBF0F004012009642101FB1078A8894C
:100AB00000F4004040B1322000EBC800B0FBF1F080
:100AC00000F00700044308E0322000EB0810642126
:100AD000B0FBF1F000F00F0004432C81BDE8FF876C
:100AE0000010014000140140C1F3080282807047E9
:100AF00000BFFEE7F0B503460C460021002000BF12
:100B00000EE000EB0016174FBE5D1778BE4205D110
:100B100000EB0016134F3E44751C03E0461CF0B278
:100B20004B28EEDB00BF4B2801D10E4D6D1C002180
:100B300014E000200EE0082606FB0106AE5D5F18FB
:100B4000DFF824C00CEBC71704EB000C07F80C60AF
:100B5000461CF0B20828EEDB4E1CF1B20229E8DB9D
:100B6000F0BD000024000020A405002010B50446BC
:100B70004FF480510848FFF7FCFB4FF40051064842
:100B8000FFF7F7FB2046FFF7EFFD4FF480510248D7
:100B9000FFF7F1FB10BD0000000C024010B5044649
:100BA0004FF480510848FFF7E4FB4FF4005106482A
:100BB000FFF7E1FB2046FFF7D7FD4FF480510248D5
:100BC000FFF7D9FB10BD0000000C024070B50646CF
:100BD000002415E004F1B001C8B2FFF7C7FF1020F0
:100BE000FFF7C4FF0420FFF7C1FF002504E03046F3
:100BF000FFF7D4FF681CC5B2802DF8DB601CC4B2BF
:100C0000082CE7DB70BD00000FB4054B10B503A93D
:100C1000044A029800F018F810BC5DF814FB0000BC
:100C20003D110008A005002002E008C8121F08C1FD
:100C3000002AFAD170477047002001E001C1121F5D
:100C4000002AFBD1704700002DE9FF4F8BB09A4678
:100C50000F460546002606E025280BD052460D9982
:100C600090476D1C761C28780028F5D10FB03046CF
:100C7000BDE8F08F0024A0460122604900E0044353
:100C800015F8013F203B02FA03F00842F7D128781B
:100C90002E2817D115F8010F44F004042A280ED08D
:100CA0006FF02F022878A0F1300109290AD808EB4B
:100CB000880102EB410100EB01086D1CF2E757F8D7
:100CC000048B6D1C287869283ED006DC0028CDD026
:100CD00063280BD0642804D136E0732810D075281F
:100CE0004BD052460D999047761C85E017F8040BBF
:100CF0008DF8000000208DF80100E946012003E096
:100D000057F8049B4FF0FF3061074FF0000401D407
:100D10000AE0641C44450DDA8442FADB19F8041039
:100D20000029F6D106E0641C8442FCDB19F80410AB
:100D30000029F8D1264404E019F8010B52460D9918
:100D40009047641EF8D257E001CF4FF00A0B0028FD
:100D500002DA40422D2102E0210504D52B218DF835
:100D60002410012103E0E10705D02021F7E70DF170
:100D7000200908910CE00021F9E701CF4FF00A0BA0
:100D8000F9E75946FFF71CFA01F1300209F8012D85
:100D90000028F6D1ADEB090000F1200B600701D46B
:100DA0004FF00108D84502DDA8EB0B0000E0002061
:100DB0008046002406E009A85246005D0D99904740
:100DC000641C761C08988442F5DB04E0302052460F
:100DD0000D999047761CB8F10001A8F10108F5DCE7
:100DE00005E019F8010B52460D999047761CBBF1AE
:100DF0000001ABF1010BF4DC6D1C34E709280100A4
:100E000070B5044600F036F9E06868B10C48056832
:100E100008E0A54205D10B480068E06000F0BAFC8C
:100E200070BDAD68002DF4D106480068E06004484C
:100E30000068A0600248046000F0ACFC00BFEFE76F
:100E4000680500208405002070B50446002505E0F3
:100E500054F82500002100F061FA6D1C54F82500BB
:100E60000028F5D170BD00002DE9F04104460E4682
:100E70001746A07B00F00100C8B1A068B8B10D48CA
:100E800004600220A0733A46314604F10C00A368C6
:100E900098470546022D03D0032D01D0832E04D19F
:100EA0002146204600F0FAF801E00120A073BDE8D9
:100EB000F08100008405002010B514480068C008C7
:100EC0006421B0FBF1F4601EB0F1807F01D30120FA
:100ED0000FE0601E4FF0E02148610F214FF0FF301E
:100EE000FFF796FB00204FF0E021886107200861A2
:100EF000002008B100BFFEE76FF00400FFF7D6FC4A
:100F00000621C81FFFF784FB10BD00000000002071
:100F100001480068704700002005002010B53048E7
:100F2000007800285BDD2F48007800EB40002E4958
:100F300011F820002D4908702A48007800EB400085
:100F4000294901EB8000406829490860254800785C
:100F500000EB4000244901EB8000806825490860CF
:100F600020490978481CC11700EBD1614911A0EB59
:100F700041111C4A11701A480078401E1849087027
:100F80001C480068D8B91C4800681C49086011E07A
:100F90001B48007808B100F035F81548026813487E
:100FA000017816480068FFF75FFF14480068006882
:100FB00012490860114800680028E9D10FE00B4889
:100FC0000078812803D101200A49096888730848FC
:100FD00002680648017807480068FFF745FF10BD22
:100FE000890500208A050020C40900208C05002006
:100FF0009005002094050020800500209805002021
:101000008B05002010B500200949087009480468C4
:101010000BE0E07B40B10120A0730020E0730022D0
:1010200082212046FFF720FF2468002CF1D110BD5B
:101030008B050020800500200146C86808B9012002
:1010400070470020FCE7000000B500F009F810B17F
:101050000248006800BD0020FCE700006C0500208D
:101060000348006808B1012070470020FCE7000039
:101070006805002010B5024800F0E4F810BD00003B
:101080007005002070B504460D462946204600F044
:1010900011FB2046FFF7B4FE70BD00002DE9F041C2
:1010A00004460E46234807682348056800E02D687B
:1010B000A54201D0002DFAD10DB9BDE8F08120463E
:1010C00000F0B8F8D0B10020A0731B48056807E015
:1010D000AC4204D0224687212846FFF7C5FE2D6882
:1010E000002DF5D1A06848B1B44207D01148046082
:1010F0000022832104F10C00A36898470E48006881
:10110000844205D10C48006800680B4908600CE077
:101110000948056806E02868A04202D120682860D6
:1011200002E02D68002DF6D100BF0248076000BF25
:10113000C3E70000840500208005002070B5044648
:101140000D46E1B20548FFF7CFFC00BF4021034840
:10115000FFF72EFC0028F9D0204670BD0048004063
:10116000FFF781F812A0FFF74FFD164916A0FFF711
:101170004BFDFFF7A1FE00F045F80021184800F0F4
:10118000CDF80021174800F0C9F81748FFF75CFEBA
:1011900016A0FFF739FD09E000BF00F0ADF8002808
:1011A000FBDC17480068401C15490860F4E70000A4
:1011B0000D0A496E697469616C6973696E670D0A1D
:1011C00000000000300500200D0A436F6D70696C4F
:1011D000652074696D652069733A2573000000000D
:1011E0007005002058050020E417000850726F6356
:1011F00065737365732072756E6E696E670D0A0094
:10120000440500208A20064908700020054908701E
:1012100005490870054908600549086070470000E5
:10122000880500208A05002089050020800500200F
:10123000840500200146887B08B10120704700200A
:10124000FCE7000048B1817B012902D0817B0229A3
:1012500003D10121C173014A117070478B05002031
:1012600030B5034617480078202801D1012030BD51
:10127000154C2478134D2D782C44E0B2C41700EBA4
:10128000D4646411A0EB4414104D2C7028460078EF
:1012900000EB40000E4C04F820102846007800EBCC
:1012A000400004EB800042602846007800EB4000DC
:1012B00004EB8000836003480078401C014C2070E0
:1012C0000020D4E7890500208A0500209C05002025
:1012D000C40900202DE9F04104460D461646054894
:1012E0000768324629462046FFF7BEFD01480760E1
:1012F000BDE8F0818405002010B50648007808B1EB
:10130000FFF780FEFFF70AFE0348007801490978DD
:10131000084410BD8B0500208905002070B50446E7
:101320000E460D48056800E02D68A54201D0002D4D
:10133000FAD1A54200D170BD074800682060064878
:1013400004600120A0730020A08132468121204644
:10135000FFF7C0FF00BFEEE7800500202DE9F04158
:1013600004460E4617460125208829285DD007DC53
:1013700078B120281CD023282FD0262870D140E017
:101380002D2866D030287BD033286BD03628F5D175
:101390009EE0A8E05748016857A0FFF735FC64219C
:1013A0005948FFF76FFE00BF00252020208000BFB6
:1013B0001DB15548FFF740FE10B90120BDE8F0818E
:1013C00000BF0020FFF7B6F864214F48FFF75AFE30
:1013D00000BF00252320208000BF1DB14A48FFF731
:1013E0002BFE08B90120E9E700BF0120FFF7A2F8B2
:1013F00064214548FFF746FE00BF002526202080D7
:1014000000BF1DB14048FFF717FE08B90120D5E71E
:1014100000BF0220FFF78EF864213B48FFF732FE41
:1014200000BF00252920208000BF1DB13648FFF7EE
:1014300003FE08B90120C1E700BF0320FFF77AF8D7
:1014400064213148FFF71EFE00BF00252D202080BB
:1014500000BF1DB12C48FFF7EFFD20B90120ADE71B
:1014600042E00DE020E000BF0020FFF73FF86421DC
:101470002548FFF707FE00BF00253020208000BF71
:101480001DB12148FFF7D8FD08B9012096E700BF3C
:101490000120FFF72BF864211B48FFF7F3FD00BF85
:1014A00000253320208000BF1DB11748FFF7C4FD81
:1014B00008B9012082E700BF0220FFF717F8642176
:1014C0001148FFF7DFFD00BF00253620208000BF58
:1014D0001DB10D48FFF7B0FD08B901206EE700BF50
:1014E0000320FFF703F855E70025002020800320A4
:1014F00064E700002C0500200D0A206C6564207450
:10150000696D652025640000A40900202DE9F047DD
:1015100005460E4690464FF00109288810B159281B
:101520005DD109E000203149086057E000BF4FF06D
:1015300000095920288000BFB9F1000F02D1012015
:10154000BDE8F08700BF872E21D1404604E027493F
:1015500009688968254A11602449096821B123492D
:101560000968C9688142F2D02049096871B11F49F0
:101570000C6808E0A168C968814203D1A168896844
:10158000A16000E0A468A1680029F3D126E0822EC2
:1015900000D023E000BF0027144804681BE0204669
:1015A00000F07AF8A8B122468821E068FFF758FEDB
:1015B00068B90020E06017B1A068B86002E00B498C
:1015C000A06808600020A06000F0E4F8E3E7FFF7FF
:1015D00051FD2746A468002CE1D100BFA6E74FF0DB
:1015E0000009002028800320AAE7000068050020E9
:1015F0002DE9F04104460E4617460125208820B10A
:101600004A2811D04E2834D127E031E01B48016828
:101610001BA0FFF7F9FAC8211D48FFF733FD00BFF3
:1016200000254A20208000BF1DB11948FFF704FDA6
:1016300010B90120BDE8F08100BF16A200210846C4
:10164000FFF758FAFEF714FFC8211148FFF71AFDFB
:1016500000BF00254E20208000BF1DB10C48FFF7C1
:10166000EBFC08B90120E5E700BF0A20FFF7AEFA5E
:10167000CCE70025002020800320DBE72C0500209C
:101680000D0A206C63642074696D65202564000078
:10169000B40900203100000070B50446FFF738FCA3
:1016A0002168401A451C6068A84201D2012070BD23
:1016B0000020FCE770B504460D466560FFF728FC86
:1016C000206070BD00B587B001210420FEF7B6FF91
:1016D00001218804FEF7C2FF07220A212B48FEF7EA
:1016E00025FE07220B212948FEF720FE02208DF857
:1016F000040003208DF8050000208DF8060001206D
:101700008DF807008002009069462048FEF7C6FD6C
:101710004FF40060009069461C48FEF7BFFD4FF48F
:10172000E13003904FF48050ADF810000020ADF888
:1017300012004FF48060ADF814000020ADF81800DE
:101740000C20ADF8160003A91148FFF763F94FF418
:10175000A060FEF753FF27208DF8080000208DF8C9
:1017600009008DF80A0001208DF80B0002A8FEF791
:1017700009FF01210648FFF70FF9012240F2255128
:101780000348FFF722F907B000BD0000000802403F
:101790000048004070B51149096819B90021104A84
:1017A000116019E0FFF7B4FB0C490C68D4E9001292
:1017B00011440D1AA4680AE0D4E900121144091A70
:1017C000A94203D2D4E9001211440D1AA468002CD6
:1017D000F2D14119024A116070BD00006805002075
:1017E0006C0500204805002000000000426C696E76
:1017F0006B0000004C636472656675720000000047
:101800004576656E742074696D6572002C18000849
:1018100000000020A405000010020008B41B00080E
:10182000A4050020A4090000380C000811847A03E4
:101830000A680901020304060708090C691012303E
:1018400027E010080810E0170F102020100F1231A9
:10185000541010F82620203F20201232277008084C
:101860000888701730282422213012332730088846
:101870008848301718202020110E22343BC0203514
:1018800017070424243F2412351AF8222308083BA2
:101890001921221A3666348888183B0F1111123725
:1018A0001E380808C8382221423F12381A703129E0
:1018B00066171C222121221C7A3999111631222205
:1018C000110F198BE122611A800131180B192422A2
:1018D00022223F206208F8123953496632634922B6
:1018E0001A0E111320113A64111A88AB29117D10B8
:1018F0003F2065441A1F431322131A66102BF088E9
:10190000AC1D20203F20744A67221923176B949442
:101910009493603A686619102C203F2105132069C2
:101920005480989859332A6A6639131AC0291A7F45
:101930003A193339341008203F24022D3020126C1C
:101940002A081389333A6D643922122029031A6E4A
:101950000CB9668A6FAA19CB13201F3A7022296B23
:101960003BFFA1EE4A71EE191329DD2DA0FF807215
:101970000D39551945122012017A73CC1B332401FD
:1019800012191A74103AE0453957214A755219054F
:1019900029663D103F20762F290517010E300806D5
:1019A000012A7754291110080F300C030C300F2A2C
:1019B000782F49AB16312E0E31206A79331E808183
:1019C0008E7018334A7A7619151721302C2221305F
:1019D00022412CC038E0FE380F3C23020227382079
:1019E0004208F888888870E939CC1D43C030080166
:1019F00012382B07188812081C4408F8104B10E006
:101A00002213100F2A45333CE80810111423201824
:101A10009A46111132033A47442238294414221EAF
:101A2000021A4844211905100A203F210101213FD3
:101A300020492A085729892946211A4A1F39121A8A
:101A4000C0AF327F1A4B552DC028180855150126F6
:101A500038203A4C4429322988132030154D08F893
:101A6000F81AF81513203F190212204E4E08F830CC
:101A7000C0661A207B123F4C4FE010BB4B0F10BBCF
:101A80003A50CC1B08F033198822017A51221718DA
:101A9000242438504F2A52CC4C888870CC150C30F6
:101AA00020534B7088CD1738202121221C3B54181D
:101AB000A94A188A316A55DD112A1F99121F255625
:101AC0000878881BC838161C07380E661A571C1A67
:101AD000F8221114033C0714073C03481658081851
:101AE00068808068180820302C03032C30205908A7
:101AF00038C83259552A5A982911100820382621F9
:101B0000202018323A63C0C0333030322163F8F8F5
:101B1000333333322845E0180402150718204012E9
:101B20002945020418E0354020180710092A4040D2
:101B300080F080404010080202010F010202922D45
:101B40004A0101322B5AF0101A1F04114B3D40017B
:101B5000114A040111125C5B0C3087111501063823
:101B6000C0422F15806018041C601806ED11922EDB
:101B700039A8211D25F008F09A29B4A61C031E21BE
:101B80001E726428134A756E20203320323031369D
:101B900031393A35353A35D16113EC1714085D13F4
:101BA00082081AF4108BF115109112180B12080DFF
:041BB0001801170001
:040000050800018965
:00000001FF
